:100000000C94C9000C94F1000C94F1000C94F100D4
:100010000C94F1000C94F1000C94F1000C94F1009C
:100020000C94F1000C94F1000C94F1000C94DA03A0
:100030000C94E4030C9498040C94F1000C94F100DB
:100040000C94F1000C94F1000C94F1000C94F1006C
:100050000C94F1000C94F1000C94F1000C94F1005C
:100060000C94F1000C94F100084AD73B3BCE016E92
:1000700084BCBFFDC12F3D6C74319ABD56833DDAFF
:100080003D00C77F11BED9E4BB4C3E916BAAAABE0E
:10009000000000803F0000407A10F35A00A0724E2A
:1000A00018090010A5D4E80000E87648170000E41D
:1000B0000B54020000CA9A3B000000E1F505000065
:1000C00080969800000040420F000000A0860100CA
:1000D0000000102700000000E8030000000064009A
:1000E000000000000A000000000001000000000005
:1000F0002C76D888DC674F0823DFC1DFAE59E1B129
:10010000B796E5E3E453C63AE651997696E8E6C237
:100110008426EB898C9B62ED407C6FFCEFBC9C9F3E
:1001200040F2BAA56FA5F490055A2AF75C936B6C60
:10013000F9676DC11BFCE0E40D47FEF520E6B50054
:10014000D0ED902E0300943577050080841E0800C2
:1001500000204E0A000000C80C333333330F986E72
:1001600012831141EF8D2114893BE65516CFFEE62F
:10017000DB18D1844B381BF77C1D901DA4BBE424F5
:10018000203284725E228100C9F124ECA1E53D2772
:10019000960511241FBECFEFD8E0DEBFCDBF11E022
:1001A000A0E0B1E0EEE8F6E102C005900D92A431C6
:1001B000B107D9F721E0A4E1B1E001C01D92A2325C
:1001C000B207E1F710E0C9ECD0E004C02197FE01CE
:1001D0000E94A905C83CD107C9F70E94F4040C94F9
:1001E000450B0C9400001092B90088E48093B8008D
:1001F000089594EA9093BC009091BC0097FFFCCFC7
:100200009091B900987F983021F0903111F081E001
:1002100008958093BB0084E88093BC008091BC006B
:1002200087FFFCCF8091B900887F883111F080343E
:1002300071F780E0089524EA34E844E92093BC0093
:100240009091BC0097FFFCCF9091B900987F9830B7
:1002500011F0903199F78093BB003093BC009091DE
:10026000BC0097FFFCCF9091B900987F903211F0BD
:10027000983539F44093BC009091BC0094FDFCCFBC
:10028000DDCF08950C94F90084E98093BC0080913F
:10029000BC0084FDFCCF08958093BB0084E880936C
:1002A000BC008091BC0087FFFCCF9091B900987F83
:1002B00081E0983209F480E0089584EC8093BC00DA
:1002C0008091BC0087FFFCCF8091BB00089584E83B
:1002D0008093BC008091BC0087FFFCCF8091BB0065
:1002E00008951092C50089E18093C400E1ECF0E02C
:1002F000808188618083E2ECF0E080818660808389
:1003000008958091C00087FFFCCF8091C6000895BA
:100310008091C00085FFFCCF6093C60008950F93C5
:100320001F93CF93DF938C01EB016991662321F03A
:10033000C8010E948801F9CFDF91CF911F910F91E1
:100340000895CF92DF92EF92FF920F931F93CF9376
:10035000DF936C018B01EB017E01E01AF10AC6010B
:100360000E94810189938A3019F098819111F4CF0C
:10037000C701DF91CF911F910F91FF90EF90DF9018
:10038000CF90089563E50C944B03CF93DF931F92B6
:10039000CDB7DEB7FC018081898348E06DE2CE01F4
:1003A00001960E9465030F90DF91CF910895EF921F
:1003B000FF920F931F93CF93DF931F92CDB7DEB7BA
:1003C0008B0166E1CE0101960E944B03CE0101969E
:1003D0000E94530366EACE0101960E945B0362E32A
:1003E000CE0101960E945B03CE0101960E94530349
:1003F00067EACE0101960E945B0361E0CE0101969F
:100400000E94CC03B801CE0101960E948C03E12C1E
:10041000F12CB8016E0D7F1DCE0101960E948C0358
:100420008FEFE81AF80A85E0E816F10491F760E02A
:10043000CE0101960E94CC03B8016B5F7F4FCE01C5
:1004400001960E948C030F90DF91CF911F910F9125
:10045000FF90EF900895CF92DF92EF92FF920F936B
:100460001F93CF93DF93CDB7DEB728970FB6F894DD
:10047000DEBF0FBECDBF8C016B01CE0107960E947F
:100480007101BE016F5F7F4FC8010E94D701CE018D
:1004900001967C0186019CE0C90ED11CF701619197
:1004A00071917F01072E000C880B990B0E94380771
:1004B00027E73EEB4FE15DE30E94F307F80161930C
:1004C0007193819391938F01EC15FD0539F728966F
:1004D0000FB6F894DEBF0FBECDBFDF91CF911F9155
:1004E0000F91FF90EF90DF90CF900895CF93DF931F
:1004F00000D000D000D0CDB7DEB7BE016F5F7F4F18
:100500000E94D70126960FB6F894DEBF0FBECDBF6E
:10051000DF91CF9108951F93CF93DF9300D0CDB794
:10052000DEB7162F66E1CE0101964A830E944B0387
:10053000CE0101960E94530366EACE0101960E9405
:100540005B03612FCE0101960E945B034A81642FF9
:10055000CE0101960E945B03CE0101960E94D60354
:100560000F900F90DF91CF911F910895FF920F93FD
:100570001F93CF93DF931F92CDB7DEB7F62E8A017C
:1005800066E1CE0101960E944B03CE0101960E94C6
:10059000530366EACE0101960E945B036F2DCE01E4
:1005A00001960E945B03CE0101960E94530367EA05
:1005B000CE0101960E945B03B801CE0101960E9414
:1005C0008C03CE0101960E94D6030F90DF91CF914C
:1005D0001F910F91FF900895DF92EF92FF920F937A
:1005E0001F93CF93DF9300D0CDB7DEB7D62E7A011D
:1005F000CE0101960E94710186EA0E94F90009EB82
:1006000010E0F8019081692F687FCE0101960E9469
:1006100088018FE39FE10197F1F700C000008D2D65
:100620000E944C01F8016081687FCE0101960E9412
:1006300088018FE39FE10197F1F700C0000087EA8E
:100640000E9442010E946701D82EF8016081687FF4
:10065000CE0101960E9488018FE39FE10197F1F797
:1006600000C000006D2DCE0101960E948801EFE3CD
:10067000FFE13197F1F700C00000F701D0820E943E
:1006800044010F900F90DF91CF911F910F91FF9038
:10069000EF90DF900895FC01608382E18093B800C1
:1006A0001092B900089584EA8093BC008091BC0048
:1006B00087FFFCCF08956093BB0084E88093BC0063
:1006C0008091BC0087FFFCCF0895EF92FF921F93AB
:1006D000CF93DF931F92CDB7DEB77C01162F4983EE
:1006E0000E945303F7018081682F660FC7010E94A3
:1006F0005B03612FC7010E945B034981642FC7011F
:100700000E945B0384E98093BC000F90DF91CF913E
:100710001F91FF90EF9008958091BB00FB018083B3
:100720008091BC0084688093BC008091BC0087FFEE
:10073000FCCF0895FF920F931F93CF93DF931F92E7
:10074000CDB7DEB78C01F62E0E945303F8018081ED
:10075000682F660FC8010E945B036F2DC8010E94BD
:100760005B03C8010E945303F8016081660F6F5F4D
:10077000C8010E945B03BE016F5F7F4FC8010E94EA
:100780008C0384E98093BC0089810F90DF91CF9125
:100790001F910F91FF900895ECEBF0E0908180E4C1
:1007A0006802B0011124692B6083089584E9809365
:1007B000BC0008951F920F920FB60F9211240F9054
:1007C0000FBE0F901F9018951F920F920FB60F92A9
:1007D0001124CF92DF92EF92FF922F933F934F938A
:1007E0005F936F937F938F939F93AF93BF93CF93B9
:1007F000DF93EF93FF93C0912001D0912101C1308D
:10080000D105D1F41092210110922001109215010E
:100810001092140180E980938B008FE380938A000B
:1008200088B100901E0102C0CC0FDD1F0A94E2F7D0
:10083000C095C823C8B965C06091140170911501B5
:10084000072E000C880B990B0E9438076B017C0166
:10085000FE01EE0FFF1FE050FF4F80819181BC0130
:1008600080E090E00E94360720E030E04AEF5CE351
:100870000E94F30720E030E04AEF54E40E94B00504
:100880009B01AC01C701B6010E94B0050E940007A0
:100890007093150160931401CD2B21F41092850003
:1008A000109284008091150180938B008091140137
:1008B00080938A00809120019091210128B1892B99
:1008C00061F081E090E000901E0102C0880F991F46
:1008D0000A94E2F7809582230AC081E090E00090BC
:1008E0001E0102C0880F991F0A94E2F7822B88B973
:1008F0008091200190912101019690932101809394
:100900002001FF91EF91DF91CF91BF91AF919F9126
:100910008F917F916F915F914F913F912F91FF90B8
:10092000EF90DF90CF900F900FBE0F901F90189513
:100930001F920F920FB60F9211240F900FBE0F90BF
:100940001F90189520E920938B002FE320938A00B5
:100950001092800022E02093810027E020936F0016
:1009600020E031E0FC01338322832EE131E031834A
:1009700020837894089527B1DC01ED91FC9181E00A
:1009800090E0008002C0880F991F0A94E2F7822B42
:1009900087B90895CF93DF93DC011296ED91FC9116
:1009A00013972FEF3FEF31832083E6ECF0E02083B5
:1009B000BFEFCDE3D9E4B150C040D040E1F700C073
:1009C0000000EC01AA81BB811D921C921082DFEF16
:1009D0002DE339E4D15020403040E1F700C0000061
:1009E000DF91CF9108950895CF93DF93CDB7DEB710
:1009F00069970FB6F894DEBF0FBECDBFCE01479604
:100A00000E947101CE0149960E94C201CE01499611
:100A10000E94C501529A84E0382E3BB8BE016F5F38
:100A20007F4FCE0149960E942B0249845A846B84E1
:100A30007C848D809E80AF80B884A3019201C50123
:100A4000B4010E942F066B017C01A5019401C50130
:100A5000B4010E94F3074B015C01A3019201C301A1
:100A6000B2010E94F3079B01AC01C501B4010E94D1
:100A7000B0050E9466089B01AC0189819A81AB8117
:100A8000BC81BC01CD0190580E942F062B013C0176
:100A900020E030E044E353E4C701B6010E94F307CD
:100AA00023EC35EF48E450E40E948E068E01035F8C
:100AB0001F4F24E046E00E94BF0862E071E0CE01D3
:100AC00047960E948F01B801CE0147960E948F0180
:100AD00020E030E044E353E4C301B2010E94F30795
:100AE00023EC35EF48E450E40E948E0624E046E013
:100AF0000E94BF0869E071E0CE0147960E948F0115
:100B0000B801CE0147960E948F0161E171E0CE01EC
:100B100047960E948F011BB82FEF89E698E121507C
:100B200080409040E1F700C0000077CF88B1E6E157
:100B3000F1E090E09183808388B190E09383828399
:100B400088B190E09583848388B190E09783868311
:100B50000895EE0FFF1F0590F491E02D0994505871
:100B6000BB27AA270E94C7050C94B1070E94A307C0
:100B700038F00E94AA0720F039F49F3F19F426F4B8
:100B80000C9479070EF4E095E7FB0C947307E92FBA
:100B90000E94C20758F3BA176207730784079507C4
:100BA00020F079F4A6F50C94E4070EF4E0950B2EF2
:100BB000BA2FA02D0B01B90190010C01CA01A001AF
:100BC0001124FF27591B99F0593F50F4503E68F10A
:100BD0001A16F040A22F232F342F4427585FF3CF4B
:100BE000469537952795A795F0405395C9F77EF41C
:100BF0001F16BA0B620B730B840BBAF09150A1F065
:100C0000FF0FBB1F661F771F881FC2F70EC0BA0FEA
:100C1000621F731F841F48F4879577956795B79572
:100C2000F7959E3F08F0B0CF9395880F08F099276D
:100C3000EE0F9795879508950E94A30760F080E8CE
:100C400091E009F49EEF0E94AA0728F040E851E0E5
:100C500071F45EEF0CC00C9479070C94E407E92F53
:100C6000E0780E94C20740F3092E052AB1F3261747
:100C700037074807590738F00E2E07F8E02569F0C6
:100C8000E025E0640AC0EF6307F8009407FADB018F
:100C9000B9019D01DC01CA01AD01EF930E94A506D7
:100CA0000E94B1070E945F065F91552339F02BED3A
:100CB0003FE049E450FD49EC0C94B0050895DF9302
:100CC000DD27B92FBF7740E85FE316161706480700
:100CD0005B0718F4D92F0E94EB079F938F937F93A4
:100CE0006F930E94A608E8E6F0E00E947C070E944D
:100CF000B1072F913F914F915F910E940608DD232C
:100D000051F09058A2EA2AED3FE049EC5FE3D07839
:100D10005D270E94C705DF910C94B1070E94A206CF
:100D20000C94B1070E94AA0758F00E94A30740F054
:100D300029F45F3F29F00C94730751110C94E507D7
:100D40000C9479070E94C20768F39923B1F35523E5
:100D500091F3951B550BBB27AA27621773078407CE
:100D600038F09F5F5F4F220F331F441FAA1FA9F364
:100D700035D00E2E3AF0E0E832D091505040E69552
:100D8000001CCAF72BD0FE2F29D0660F771F881FB3
:100D9000BB1F261737074807AB07B0E809F0BB0BA6
:100DA000802DBF01FF2793585F4F3AF09E3F5105BA
:100DB00078F00C9473070C94E5075F3FE4F3983EDA
:100DC000D4F3869577956795B795F7959F5FC9F7A3
:100DD000880F911D9695879597F90895E1E0660F24
:100DE000771F881FBB1F621773078407BA0720F09D
:100DF000621B730B840BBA0BEE1F88F7E095089506
:100E00000E9407076894B1110C94E50708950E94A9
:100E1000CA0788F09F5798F0B92F9927B751B0F0BB
:100E2000E1F0660F771F881F991F1AF0BA95C9F76E
:100E300014C0B13091F00E94E407B1E008950C9421
:100E4000E407672F782F8827B85F39F0B93FCCF3D4
:100E5000869577956795B395D9F73EF490958095EB
:100E6000709561957F4F8F4F9F4F0895E89409C00B
:100E700097FB3EF490958095709561957F4F8F4FCD
:100E80009F4F9923A9F0F92F96E9BB279395F695E3
:100E9000879577956795B795F111F8CFFAF4BB0F61
:100EA00011F460FF1BC06F5F7F4F8F4F9F4F16C0C5
:100EB000882311F096E911C0772321F09EE8872F4F
:100EC000762F05C0662371F096E8862F70E060E00B
:100ED0002AF09A95660F771F881FDAF7880F969584
:100EE000879597F9089597F99F6780E870E060E02B
:100EF00008959FEF80EC0895DF93CF931F930F9396
:100F0000FF92EF92DF927B018C01689406C0DA2E8B
:100F1000EF010E940608FE01E894A5912591359104
:100F200045915591A6F3EF010E94C705FE01970177
:100F3000A801DA9469F7DF90EF90FF900F911F916D
:100F4000CF91DF91089500240A941616170618060B
:100F50000906089500240A941216130614060506BD
:100F60000895092E0394000C11F4882352F0BB0F4E
:100F700040F4BF2B11F460FF04C06F5F7F4F8F4FB1
:100F80009F4F089557FD9058440F551F59F05F3FEC
:100F900071F04795880F97FB991F61F09F3F79F09B
:100FA00087950895121613061406551FF2CF46951D
:100FB000F1DF08C0161617061806991FF1CF86959F
:100FC0007105610508940895E894BB276627772783
:100FD000CB0197F908959B01AC0160E070E080E8D7
:100FE0009FE30C948E060E9406080C94B1070E94A1
:100FF000A30738F00E94AA0720F0952311F00C9463
:1010000073070C94790711240C94E5070E94C2071A
:1010100070F3959FC1F3950F50E0551F629FF0014B
:10102000729FBB27F00DB11D639FAA27F00DB11D64
:10103000AA1F649F6627B00DA11D661F829F2227ED
:10104000B00DA11D621F739FB00DA11D621F839F74
:10105000A00D611D221F749F3327A00D611D231F4A
:10106000849F600D211D822F762F6A2F11249F5798
:1010700050409AF0F1F088234AF0EE0FFF1FBB1F9B
:10108000661F771F881F91505040A9F79E3F51055A
:1010900080F00C9473070C94E5075F3FE4F3983EEF
:1010A000D4F3869577956795B795F795E7959F5F04
:1010B000C1F7FE2B880F911D9695879597F9089596
:1010C00019F416F40C9479070C94AA080E94CA0724
:1010D000B8F39923C9F3B6F39F57550B87FF0E94C6
:1010E000B8080024A0E640EA9001805856959795EC
:1010F00028F4805C660F771F881F20F026173707BB
:10110000480730F4621B730B840B202931294A2BCA
:10111000A69517940794202531254A2758F7660F7E
:10112000771F881F20F026173707480730F4620B17
:10113000730B840B200D311D411DA09581F7B90162
:10114000842F9158880F9695879508959B01AC013F
:101150000C94F3079F3F31F0915020F487957795D9
:101160006795B795880F911D9695879597F908957E
:1011700091505040660F771F881FD2F70895EF9265
:101180000F931F93CF93DF93E80147FD02C034E034
:1011900001C034E1E42F440FFF0BF7FF03C0F195CA
:1011A000E195F109E32E022F2E2FAE010E94DF08F8
:1011B000CE01DF91CF911F910F91EF9008954F9243
:1011C0005F926F927F929F92AF92BF92CF92DF9287
:1011D000EF92FF920F931F93CF93DF93CDB7DEB7BC
:1011E00029970FB6F894DEBF0FBECDBF6A01122F4C
:1011F000B02E2BE3201720F0FF24F394F00E02C052
:10120000BCE3FB2E0F2D27E0AE014F5F5F4F0E9426
:101210006D0AAC018981982F9970913031F0E1FC11
:1012200006C0E0FE06C090E205C09DE203C09BE25E
:1012300001C090E0EE2DE07183FF3CC0911102C02F
:1012400083E001C084E0811718F4212F281B01C01E
:1012500020E0E1110BC0F601822F30E2882319F063
:1012600031938150FBCFC20ED11C20E0992329F08D
:10127000D6019C93F60131966F01C6010396E2FEFA
:101280000AC03EE4D6013C9341E411964C93119779
:1012900012963C9306C03EE6F601308341E6418358
:1012A0003283FC01322F40E2332309F442C04193E0
:1012B0003150FACF82FF44C0911102C083E001C0D7
:1012C00084E0811718F4212F281B01C020E0E111D0
:1012D0000BC0F601822F30E2882319F03193815040
:1012E000FBCFC20ED11C20E0992329F0D6019C939C
:1012F000F60131966F01C6010396E2FE0BC039E498
:10130000D6013C933EE411963C93119736E4129635
:101310003C9307C039E6F60130833EE6318336E67A
:101320003283FC01322F40E2332319F041933150D4
:10133000FBCFFC01E20FF11D10828EEF9FEFB7C0D3
:10134000F1E0911101C0F0E06F2F70E01416150666
:1013500024F49A012F5F3F4F02C021E030E0260FB6
:10136000371FBB2029F06B2D70E06F5F7F4F02C0ED
:1013700060E070E0260F371F612F70E026173707F7
:101380001CF4121B212F01C020E03E2D387159F4AE
:10139000D601322F60E2332319F06D933150FBCF29
:1013A000C20ED11C20E0FF2331F0D6019C93B60180
:1013B0006F5F7F4F6B01E1110BC0F601922F30E39D
:1013C000992319F031939150FBCFC20ED11C20E02C
:1013D0009F2D940F3A81782F7071A72E84FF03C040
:1013E000313309F49150191624F4993018F098E02B
:1013F00001C091E0E42F852F57FF02C0E0E080E0BC
:101400006E2F782FE0E0F0E0AEE29A2E3A01691AF2
:1014100071082A01461A570A0B2D10E01195019503
:1014200011096F3F8FEF780729F4D6019C92C6010E
:1014300001966C014617570784F0661677066CF420
:101440007F01E40CF51CA1E0B0E0AC0FBD1FEA0E7B
:10145000FB1ED7011196BC9002C090E3B92E6150DB
:1014600071093196C60101967C016017710724F05D
:10147000D601BC926C01D5CF6417750741F43633A1
:1014800020F4353321F4A11002C081E3B82EF60117
:10149000B082F701822F90E2882319F09193815056
:1014A000FBCFF701E20FF11D108280E090E029965A
:1014B0000FB6F894DEBF0FBECDBFDF91CF911F9165
:1014C0000F91FF90EF90DF90CF90BF90AF909F90E3
:1014D0007F906F905F904F900895283008F027E03C
:1014E0003327DA01990F311D87FD91600096610560
:1014F000710539F432602E5F3D9330E32A95E1F7B0
:1015000008959F3F30F080387105610509F03C5F18
:101510003C5F3D93913008F08068911DDF93CF933D
:101520001F930F93FF92EF92192F987F9695E92FB3
:1015300096959695E90FFF27E051FF4F992733279E
:10154000EE24FF24A701E70105900894079428F4EE
:10155000360FE71EF81E491F511D660F771F881FA3
:10156000991F0694A1F70590079428F4E70EF81E3A
:10157000491F561FC11D770F881F991F661F0694AC
:10158000A1F70590079428F4F80E491F561FC71FAE
:10159000D11D880F991F661F771F0694A1F705902C
:1015A000079420F4490F561FC71FD81F990F661FB5
:1015B000771F881F0694A9F784911095177041F042
:1015C000D695C79557954795F794E7941A95C1F71F
:1015D000E6E9F0E068941590159135916591959143
:1015E00005907FE27395E118F10A430B560BC90B86
:1015F000D009C0F7E10CF11E431F561FC91FD01DB3
:101600007EF4703311F48A95E6CFE894015030F0FF
:10161000080F0AF40027021708F4202F2395022F41
:101620007A3328F079E37D932A95E9F710C07D930A
:101630002A9589F606949795679537951795179487
:10164000E118F10A430B560BC90BD00998F023950A
:101650007E9173957A3308F070E37C932013B8F78A
:101660007E9170617D9330F0839571E37D9370E39B
:101670002A95E1F71124EF90FF900F911F91CF91E0
:0E168000DF91992787FD90950895F894FFCF8C
:10168E00010020726F6C6C3A002070697463683AC6
:04169E00000A00003E
:00000001FF
