:100000000C9434000C9449000C9449000C94490061
:100010000C9449000C9449000C9449000C9449003C
:100020000C9449000C9449000C9449000C94320340
:100030000C943D030C944B030C9449000C94490020
:100040000C9449000C9449000C9449000C9449000C
:100050000C9449000C9449000C9449000C944900FC
:100060000C9449000C94490011241FBECFEFD8E036
:10007000DEBFCDBF11E0A0E0B1E0E6E5F9E002C0EF
:1000800005900D92A830B107D9F70E9473030C9424
:10009000A9040C9400001092B90088E48093B80081
:1000A000089594EA9093BC009091BC0097FFFCCF18
:1000B0009091B900987F983021F0903111F081E053
:1000C00008958093BB0084E88093BC008091BC00BD
:1000D00087FFFCCF8091B900887F883111F0803490
:1000E00071F780E0089524EA34E844E92093BC00E5
:1000F0009091BC0097FFFCCF9091B900987F983009
:1001000011F0903199F78093BB003093BC0090912F
:10011000BC0097FFFCCF9091B900987F903211F00E
:10012000983539F44093BC009091BC0094FDFCCF0D
:10013000DDCF08950C94510084E98093BC00809138
:10014000BC0084FDFCCF08958093BB0084E88093BD
:10015000BC008091BC0087FFFCCF9091B900987FD4
:1001600081E0983209F480E0089584EC8093BC002B
:100170008091BC0087FFFCCF8091BB00089584E88C
:100180008093BC008091BC0087FFFCCF8091BB00B6
:1001900008951092C50089E18093C400E1ECF0E07D
:1001A000808188618083E2ECF0E0808186608083DA
:1001B00008958091C00087FFFCCF8091C60008950C
:1001C0008091C00085FFFCCF6093C60008950F9317
:1001D0001F93CF93DF938C01EB016991662321F08C
:1001E000C8010E94E000F9CFDF91CF911F910F91DC
:1001F0000895CF92DF92EF92FF920F931F93CF93C8
:10020000DF936C018B01EB017E01E01AF10AC6015C
:100210000E94D90089938A3019F098819111F4CF06
:10022000C701DF91CF911F910F91FF90EF90DF9069
:10023000CF90089563E50C94A302CF93DF931F92B0
:10024000CDB7DEB7FC018081898348E06DE2CE0145
:1002500001960E94BD020F90DF91CF910895EF9219
:10026000FF920F931F93CF93DF931F92CDB7DEB70B
:100270008B0166E1CE0101960E94A302CE01019698
:100280000E94AB0266EACE0101960E94B30262E3CD
:10029000CE0101960E94B302CE0101960E94AB02EC
:1002A00067EACE0101960E94B30261E0CE01019699
:1002B0000E942403B801CE0101960E94E402E12CC1
:1002C000F12CB8016E0D7F1DCE0101960E94E40253
:1002D0008FEFE81AF80A85E0E816F10491F760E07C
:1002E000CE0101960E942403B8016B5F7F4FCE01BF
:1002F00001960E94E4020F90DF91CF911F910F9120
:10030000FF90EF900895CF92DF92EF92FF920F93BC
:100310001F93CF93DF93CDB7DEB728970FB6F8942E
:10032000DEBF0FBECDBF8C016B01CE0107960E94D0
:10033000C900BE016F5F7F4FC8010E942F01CE012F
:1003400001967C0186019CE0C90ED11CF7016191E8
:1003500071917F01072E000C880B990B0E94B0034E
:1003600027E73EEB4FE15DE30E94EB03F801619369
:100370007193819391938F01EC15FD0539F72896C0
:100380000FB6F894DEBF0FBECDBFDF91CF911F91A6
:100390000F91FF90EF90DF90CF900895CF93DF9370
:1003A00000D000D000D0CDB7DEB7BE016F5F7F4F69
:1003B0000E942F0126960FB6F894DEBF0FBECDBF68
:1003C000DF91CF9108951F93CF93DF9300D0CDB7E6
:1003D000DEB7162F66E1CE0101964A830E94A30282
:1003E000CE0101960E94AB0266EACE0101960E9400
:1003F000B302612FCE0101960E94B3024A81642F9D
:10040000CE0101960E94B302CE0101960E942E03F6
:100410000F900F90DF91CF911F910895FF920F934E
:100420001F93CF93DF931F92CDB7DEB7F62E8A01CD
:1004300066E1CE0101960E94A302CE0101960E94C0
:10044000AB0266EACE0101960E94B3026F2DCE0187
:1004500001960E94B302CE0101960E94AB0267EAA8
:10046000CE0101960E94B302B801CE0101960E940E
:10047000E402CE0101960E942E030F90DF91CF91EE
:100480001F910F91FF900895DF92EF92FF920F93CB
:100490001F93CF93DF9300D0CDB7DEB7D62E7A016E
:1004A000CE0101960E94C90086EA0E94510009EB24
:1004B00010E0F8019081692F687FCE0101960E94BB
:1004C000E0008FE39FE10197F1F700C000008D2D60
:1004D0000E94A400F8016081687FCE0101960E940D
:1004E000E0008FE39FE10197F1F700C0000087EA89
:1004F0000E949A000E94BF00D82EF8016081687F98
:10050000CE0101960E94E0008FE39FE10197F1F791
:1005100000C000006D2DCE0101960E94E000EFE3C7
:10052000FFE13197F1F700C00000F701D0820E948F
:100530009C000F900F90DF91CF911F910F91FF9032
:10054000EF90DF900895FC01608382E18093B80012
:100550001092B900089584EA8093BC008091BC0099
:1005600087FFFCCF08956093BB0084E88093BC00B4
:100570008091BC0087FFFCCF0895EF92FF921F93FC
:10058000CF93DF931F92CDB7DEB77C01162F49833F
:100590000E94AB02F7018081682F660FC7010E949D
:1005A000B302612FC7010E94B3024981642FC701C2
:1005B0000E94B30284E98093BC000F90DF91CF9139
:1005C0001F91FF90EF9008958091BB00FB01808305
:1005D0008091BC0084688093BC008091BC0087FF40
:1005E000FCCF0895FF920F931F93CF93DF931F9239
:1005F000CDB7DEB78C01F62E0E94AB02F8018081E8
:10060000682F660FC8010E94B3026F2DC8010E94B7
:10061000B302C8010E94AB02F8016081660F6F5FF0
:10062000C8010E94B302BE016F5F7F4FC8010E94E4
:10063000E40284E98093BC0089810F90DF91CF911F
:100640001F910F91FF900895ECEBF0E0908180E412
:100650006802B0011124692B6083089584E98093B6
:10066000BC0008951F920F920FB60F92112418B874
:100670000F900FBE0F901F9018951F920F920FB6FC
:100680000F9211248F9381E088B98F910F900FBE44
:100690000F901F9018951F920F920FB60F92112472
:1006A0008F9381E088B98F910F900FBE0F901F90AC
:1006B0001895FC0171836083389A1092890083E059
:1006C00080938B0010928A008FEF809388001092A5
:1006D000800082E08093810087E080936F007894AF
:1006E000089508950895CF93DF93CDB7DEB76F9740
:1006F0000FB6F894DEBF0FBECDBFCE014D960E945F
:10070000C900CE014F960E941A0188E0E0E0F1E0B6
:10071000DE01559601900D928A95E1F7BE016B5E60
:100720007F4FCE010D960E945903CE014F960E9435
:100730001D01529A14E01BB9BE016F5F7F4FCE01BD
:100740004F960E9483011BB82FEF89E698E1215054
:1007500080409040E1F700C00000EDCFE89409C070
:1007600097FB3EF490958095709561957F4F8F4FE4
:100770009F4F9923A9F0F92F96E9BB279395F695FA
:10078000879577956795B795F111F8CFFAF4BB0F78
:1007900011F460FF1BC06F5F7F4F8F4F9F4F16C0DC
:1007A000882311F096E911C0772321F09EE8872F66
:1007B000762F05C0662371F096E8862F70E060E022
:1007C0002AF09A95660F771F881FDAF7880F96959B
:1007D000879597F908950E94FE030C946F040E9478
:1007E000610438F00E94680420F0952311F00C9405
:1007F00058040C945E0411240C94A3040E948004F9
:1008000070F3959FC1F3950F50E0551F629FF00163
:10081000729FBB27F00DB11D639FAA27F00DB11D7C
:10082000AA1F649F6627B00DA11D661F829F222705
:10083000B00DA11D621F739FB00DA11D621F839F8C
:10084000A00D611D221F749F3327A00D611D231F62
:10085000849F600D211D822F762F6A2F11249F57B0
:1008600050409AF0F1F088234AF0EE0FFF1FBB1FB3
:10087000661F771F881F91505040A9F79E3F510572
:1008800080F00C9458040C94A3045F3FE4F3983E6A
:10089000D4F3869577956795B795F795E7959F5F1C
:1008A000C1F7FE2B880F911D9695879597F90895AE
:1008B00097F99F6780E870E060E008959FEF80EC13
:1008C000089500240A9416161706180609060895B6
:1008D00000240A9412161306140605060895092E1C
:1008E0000394000C11F4882352F0BB0F40F4BF2B8B
:1008F00011F460FF04C06F5F7F4F8F4F9F4F0895CB
:1009000057FD9058440F551F59F05F3F71F04795C0
:10091000880F97FB991F61F09F3F79F087950895A5
:10092000121613061406551FF2CF4695F1DF08C0C4
:10093000161617061806991FF1CF869571056105E1
:1009400008940895E894BB2766277727CB0197F989
:060950000895F894FFCFAA
:0809560001000200030004008F
:00000001FF
