:100000000C9435000C945D000C945D000C945D0024
:100010000C945D000C945D000C945D000C945D00EC
:100020000C945D000C945D000C945D000C944603F0
:100030000C9450030C9404040C945D000C945D002B
:100040000C945D000C945D000C945D000C945D00BC
:100050000C945D000C945D000C945D000C945D00AC
:100060000C945D000C945D00780511241FBECFEF49
:10007000D8E0DEBFCDBF11E0A0E0B1E0E2E1F4E105
:1000800002C005900D92AC30B107D9F721E0ACE089
:10009000B1E001C01D92AA31B207E1F710E0C5E35B
:1000A000D0E004C02197FE010E948B05C433D10724
:1000B000C9F70E941D050C94070A0C9400001092C9
:1000C000B90088E48093B800089594EA9093BC0046
:1000D0009091BC0097FFFCCF9091B900987F983029
:1000E00021F0903111F081E008958093BB0084E805
:1000F0008093BC008091BC0087FFFCCF8091B90049
:10010000887F883111F0803471F780E0089524EA07
:1001100034E844E92093BC009091BC0097FFFCCFE9
:100120009091B900987F983011F0903199F78093B1
:10013000BB003093BC009091BC0097FFFCCF909126
:10014000B900987F903211F0983539F44093BC0093
:100150009091BC0094FDFCCFDDCF08950C94650018
:1001600084E98093BC008091BC0084FDFCCF08959D
:100170008093BB0084E88093BC008091BC0087FF23
:10018000FCCF9091B900987F81E0983209F480E02B
:10019000089584EC8093BC008091BC0087FFFCCF65
:1001A0008091BB00089584E88093BC008091BC00DE
:1001B00087FFFCCF8091BB0008951092C50089E1B4
:1001C0008093C400E1ECF0E0808188618083E2EC00
:1001D000F0E080818660808308958091C00087FF71
:1001E000FCCF8091C60008958091C00085FFFCCFB0
:1001F0006093C60008950F931F93CF93DF938C01F4
:10020000EB016991662321F0C8010E94F400F9CF47
:10021000DF91CF911F910F910895CF92DF92EF92CE
:10022000FF920F931F93CF93DF936C018B01EB0130
:100230007E01E01AF10AC6010E94ED0089938A301E
:1002400019F098819111F4CFC701DF91CF911F91DF
:100250000F91FF90EF90DF90CF90089563E50C949D
:10026000B702CF93DF931F92CDB7DEB7FC01808139
:10027000898348E06DE2CE0101960E94D1020F9081
:10028000DF91CF910895EF92FF920F931F93CF9339
:10029000DF931F92CDB7DEB78B0166E1CE010196E9
:1002A0000E94B702CE0101960E94BF0266EACE010B
:1002B00001960E94C70262E3CE0101960E94C70226
:1002C000CE0101960E94BF0267EACE0101960E940C
:1002D000C70261E0CE0101960E943803B801CE0149
:1002E00001960E94F802E12CF12CB8016E0D7F1DE1
:1002F000CE0101960E94F8028FEFE81AF80A85E015
:10030000E816F10491F760E0CE0101960E943803EF
:10031000B8016B5F7F4FCE0101960E94F8020F90EB
:10032000DF91CF911F910F91FF90EF900895CF92A1
:10033000DF92EF92FF920F931F93CF93DF93CDB78E
:10034000DEB728970FB6F894DEBF0FBECDBF8C0185
:100350006B01CE0107960E94DD00BE016F5F7F4FEB
:10036000C8010E944301CE0101967C0186019CE0F8
:10037000C90ED11CF701619171917F01072E000C0C
:10038000880B990B0E94360627E73EEB4FE15DE3B1
:100390000E94C206F80161937193819391938F013A
:1003A000EC15FD0539F728960FB6F894DEBF0FBEA1
:1003B000CDBFDF91CF911F910F91FF90EF90DF9014
:1003C000CF900895CF93DF9300D000D000D0CDB769
:1003D000DEB7BE016F5F7F4F0E94430126960FB6C6
:1003E000F894DEBF0FBECDBFDF91CF9108951F936C
:1003F000CF93DF9300D0CDB7DEB7162F66E1CE01E5
:1004000001964A830E94B702CE0101960E94BF0264
:1004100066EACE0101960E94C702612FCE010196C5
:100420000E94C7024A81642FCE0101960E94C70232
:10043000CE0101960E9442030F900F90DF91CF9161
:100440001F910895FF920F931F93CF93DF931F92F5
:10045000CDB7DEB7F62E8A0166E1CE0101960E9485
:10046000B702CE0101960E94BF0266EACE01019654
:100470000E94C7026F2DCE0101960E94C702CE01D5
:1004800001960E94BF0267EACE0101960E94C70250
:10049000B801CE0101960E94F802CE0101960E9499
:1004A00042030F90DF91CF911F910F91FF9008951C
:1004B000DF92EF92FF920F931F93CF93DF9300D0C1
:1004C000CDB7DEB7D62E7A01CE0101960E94DD00AF
:1004D00086EA0E94650009EB10E0F8019081692F1F
:1004E000687FCE0101960E94F4008FE39FE101979F
:1004F000F1F700C000008D2D0E94B800F801608166
:10050000687FCE0101960E94F4008FE39FE101977E
:10051000F1F700C0000087EA0E94AE000E94D300FD
:10052000D82EF8016081687FCE0101960E94F40008
:100530008FE39FE10197F1F700C000006D2DCE0120
:1005400001960E94F400EFE3FFE13197F1F700C05C
:100550000000F701D0820E94B0000F900F90DF9151
:10056000CF911F910F91FF90EF90DF900895FC01C4
:10057000608382E18093B8001092B900089584EA04
:100580008093BC008091BC0087FFFCCF08956093EE
:10059000BB0084E88093BC008091BC0087FFFCCF47
:1005A0000895EF92FF921F93CF93DF931F92CDB7E1
:1005B000DEB77C01162F49830E94BF02F7018081BC
:1005C000682F660FC7010E94C702612FC7010E94F2
:1005D000C7024981642FC7010E94C70284E9809342
:1005E000BC000F90DF91CF911F91FF90EF90089585
:1005F0008091BB00FB0180838091BC008468809364
:10060000BC008091BC0087FFFCCF0895FF920F9340
:100610001F93CF93DF931F92CDB7DEB78C01F62ED9
:100620000E94BF02F8018081682F660FC8010E94F6
:10063000C7026F2DC8010E94C702C8010E94BF02F5
:10064000F8016081660F6F5FC8010E94C702BE019A
:100650006F5F7F4FC8010E94F80284E98093BC005D
:1006600089810F90DF91CF911F910F91FF90089595
:10067000ECEBF0E0908180E46802B0011124692B7A
:100680006083089584E98093BC0008951F920F92BF
:100690000FB60F9211240F900FBE0F901F90189558
:1006A0001F920F920FB60F921124CF92DF92EF920A
:1006B000FF922F933F934F935F936F937F938F930B
:1006C0009F93AF93BF93CF93DF93EF93FF93C0912B
:1006D0001801D0911901C130D105D1F4109219013E
:1006E0001092180110920D0110920C0180E9809374
:1006F0008B008FE380938A0088B10090160102C0BE
:10070000CC0FDD1F0A94E2F7C095C823C8B965C0B5
:1007100060910C0170910D01072E000C880B990B54
:100720000E9436066B017C01FE01EE0FFF1FE050B8
:10073000FF4F80819181BC0180E090E00E943406EF
:1007400020E030E04AEF5CE30E94C20620E030E0A7
:100750004AEF54E40E9492059B01AC01C701B60127
:100760000E9492050E94FE0570930D0160930C019A
:10077000CD2B21F4109285001092840080910D0100
:1007800080938B0080910C0180938A0080911801E6
:100790009091190128B1892B61F081E090E00090DF
:1007A000160102C0880F991F0A94E2F780958223F0
:1007B0000AC081E090E00090160102C0880F991FE6
:1007C0000A94E2F7822B88B980911801909119015F
:1007D00001969093190180931801FF91EF91DF9199
:1007E000CF91BF91AF919F918F917F916F915F91C9
:1007F0004F913F912F91FF90EF90DF90CF900F900E
:100800000FBE0F901F9018951F920F920FB60F9268
:1008100011240F900FBE0F901F90189520E9209380
:100820008B002FE320938A001092800022E0209317
:10083000810027E020936F0020E031E0FC0133834A
:10084000228326E131E0318320837894089527B113
:10085000DC01ED91FC9181E090E0008002C0880F06
:10086000991F0A94E2F7822B87B90895DC0112964A
:10087000ED91FC9113972FEF3FEF31832083BFEF72
:100880002DE339E4B15020403040E1F700C00000D2
:10089000DC011296ED91FC91139711821082BFEF4B
:1008A0002DE339E4B15020403040E1F700C00000B2
:1008B0000895FC012081FB013081FC013083FB01A4
:1008C0002083089568E60C94B702CF93DF931F92BC
:1008D000CDB7DEB7FC018081898341E06EE3CE01B4
:1008E00001960E94D10248E166E1CE0101960E9484
:1008F000D1024BE166E1CE0101960E94D1020F9038
:10090000DF91CF910895EF92FF920F931F93CF93B2
:10091000DF931F92CDB7DEB78B0166E1CE01019662
:100920000E94B702CE0101960E94BF0260EDCE0187
:1009300001960E94C7026DE1CE0101960E94C70296
:10094000CE0101960E94BF0261EDCE0101960E9488
:10095000C70261E0CE0101960E943803E12CF12C20
:10096000B8016E0D7F1DCE0101960E94F8028FEF37
:10097000E81AF80A85E0E816F10491F760E0CE0184
:1009800001960E943803B8016B5F7F4FCE0101963C
:100990000E94F8020F90DF91CF911F910F91FF906D
:1009A000EF900895CF92DF92EF92FF920F931F93F3
:1009B000CF93DF93CDB7DEB728970FB6F894DEBF9D
:1009C0000FBECDBF8C016B01CE0107960E94DD00EA
:1009D000BE016F5F7F4FC8010E948304CE01019664
:1009E0007C0186019CE0C90ED11CF70161917191D7
:1009F0007F01072E000C880B990B0E9436062BED09
:100A00003AE84DE75DE30E94C206F80161937193F5
:100A1000819391938F01EC15FD0539F728960FB658
:100A2000F894DEBF0FBECDBFDF91CF911F910F9124
:100A3000FF90EF90DF90CF900895CF93DF93CDB7E5
:100A4000DEB769970FB6F894DEBF0FBECDBFCE01FB
:100A500047960E94DD00CE0149960E946204CE01B5
:100A600049960E946504529A84E0D82E92E0E92EBD
:100A700091E0F92E8E01035F1F4FDBB8BE016F5F5F
:100A80007F4FCE0149960E94D20469857A858B8575
:100A90009C850E94FE057F936F936D817E818F817F
:100AA00098850E94FE057F936F9369817A818B817F
:100AB0009C810E94FE057F936F93FF92EF921F939C
:100AC0000F930E942F07B801CE0147960E94FB00AA
:100AD0001BB82FEF89EF90E0215080409040E1F764
:100AE00000C000000FB6F894DEBF0FBECDBFC5CF6B
:100AF00088B1EEE0F1E090E09183808388B190E0EE
:100B00009383828388B190E09583848388B190E059
:100B1000978386830895EE0FFF1F0590F491E02DD3
:100B200009945058BB27AA270E94A9050C9488064F
:100B30000E947A0638F00E94810620F039F49F3F27
:100B400019F426F40C9477060EF4E095E7FB0C9468
:100B50007106E92F0E94990658F3BA1762077307C6
:100B60008407950720F079F4A6F50C94BB060EF4E3
:100B7000E0950B2EBA2FA02D0B01B90190010C01AD
:100B8000CA01A0011124FF27591B99F0593F50F4C5
:100B9000503E68F11A16F040A22F232F342F44271D
:100BA000585FF3CF469537952795A795F040539515
:100BB000C9F77EF41F16BA0B620B730B840BBAF0E5
:100BC0009150A1F0FF0FBB1F661F771F881FC2F750
:100BD0000EC0BA0F621F731F841F48F48795779564
:100BE0006795B795F7959E3F08F0B0CF9395880F1E
:100BF00008F09927EE0F9795879508950E940506AE
:100C00006894B1110C94BC0608950E94A10688F066
:100C10009F5798F0B92F9927B751B0F0E1F0660FC0
:100C2000771F881F991F1AF0BA95C9F714C0B13001
:100C300091F00E94BB06B1E008950C94BB06672FAB
:100C4000782F8827B85F39F0B93FCCF38695779530
:100C50006795B395D9F73EF4909580957095619519
:100C60007F4F8F4F9F4F0895E89409C097FB3EF444
:100C700090958095709561957F4F8F4F9F4F9923E9
:100C8000A9F0F92F96E9BB279395F6958795779567
:100C90006795B795F111F8CFFAF4BB0F11F460FF27
:100CA0001BC06F5F7F4F8F4F9F4F16C0882311F07F
:100CB00096E911C0772321F09EE8872F762F05C093
:100CC000662371F096E8862F70E060E02AF09A952E
:100CD000660F771F881FDAF7880F9695879597F923
:100CE000089597F99F6780E870E060E008959FEFAE
:100CF00080EC089500240A941616170618060906B3
:100D0000089500240A941216130614060506089581
:100D1000092E0394000C11F4882352F0BB0F40F409
:100D2000BF2B11F460FF04C06F5F7F4F8F4F9F4F49
:100D3000089557FD9058440F551F59F05F3F71F0CB
:100D40004795880F97FB991F61F09F3F79F0879532
:100D50000895121613061406551FF2CF4695F1DFBB
:100D600008C0161617061806991FF1CF869571054B
:100D7000610508940895E894BB2766277727CB017F
:100D800097F908950E94D5060C9488060E947A0669
:100D900038F00E94810620F0952311F00C94710622
:100DA0000C94770611240C94BC060E94990670F3EB
:100DB000959FC1F3950F50E0551F629FF001729F00
:100DC000BB27F00DB11D639FAA27F00DB11DAA1F0F
:100DD000649F6627B00DA11D661F829F2227B00D5C
:100DE000A11D621F739FB00DA11D621F839FA00DE7
:100DF000611D221F749F3327A00D611D231F849F37
:100E0000600D211D822F762F6A2F11249F5750408D
:100E10009AF0F1F088234AF0EE0FFF1FBB1F661F08
:100E2000771F881F91505040A9F79E3F510580F0D1
:100E30000C9471060C94BC065F3FE4F3983ED4F327
:100E4000869577956795B795F795E7959F5FC1F775
:100E5000FE2B880F911D9695879597F90895AEE022
:100E6000B0E0E5E3F7E00C94DE090D891E8986E029
:100E70008C831A8309838FEF9FE79E838D83AE0156
:100E8000475E5F4F6F89788DCE0101960E945207B1
:100E90002F813885F801E20FF31F10822E96E4E0CF
:100EA0000C94FA09ACE0B0E0E8E5F7E00C94D00966
:100EB0007C016B018A01FC0117821682838181FF0C
:100EC000BDC1CE0101964C01F7019381F60193FD5E
:100ED000859193FF81916F01882309F4ABC185321D
:100EE00039F493FD859193FF81916F01853229F447
:100EF000B70190E00E943A09E7CF512C312C20E055
:100F00002032A0F48B3269F030F4803259F0833211
:100F100069F420612CC08D3239F0803339F42160BE
:100F200026C02260246023C0286021C027FD27C07E
:100F300030ED380F3A3078F426FF06C0FAE05F9EB5
:100F4000300D1124532E13C08AE0389E300D112429
:100F5000332E20620CC08E3221F426FD6BC120643A
:100F600006C08C3611F4206802C0883641F4F601C0
:100F700093FD859193FF81916F018111C1CF982FCE
:100F80009F7D9554933028F40C5F1F4FFFE3F98346
:100F90000DC0833631F0833771F0833509F05BC0C3
:100FA00022C0F801808189830E5F1F4F442443943F
:100FB000512C540115C03801F2E06F0E711CF8017C
:100FC000A080B18026FF03C0652D70E002C06FEFE6
:100FD0007FEFC5012C870E942F092C0183012C85EE
:100FE0002F77222E17C03801F2E06F0E711CF80126
:100FF000A080B18026FF03C0652D70E002C06FEFB6
:101000007FEFC5012C870E9424092C012C852068C4
:10101000222E830123FC1BC0832D90E04816590625
:10102000B0F4B70180E290E00E943A093A94F4CF1C
:10103000F50127FC859127FE81915F01B70190E0C2
:101040000E943A0931103A94F1E04F1A51084114C4
:10105000510471F7E5C0843611F0893639F5F8018D
:1010600027FF07C060817181828193810C5F1F4FD0
:1010700008C060817181072E000C880B990B0E5FF0
:101080001F4F2F76722E97FF09C09095809570950F
:1010900061957F4F8F4F9F4F2068722E2AE030E07E
:1010A000A4010E947209A82EA81844C0853729F40B
:1010B0002F7EB22E2AE030E025C0F22FF97FBF2E1E
:1010C0008F36C1F018F4883579F0B4C0803719F044
:1010D000883721F0AFC02F2F2061B22EB4FE0DC093
:1010E0008B2D8460B82E09C024FF0AC09F2F966004
:1010F000B92E06C028E030E005C020E130E002C093
:1011000020E132E0F801B7FE07C060817181828181
:1011100093810C5F1F4F06C06081718180E090E079
:101120000E5F1F4FA4010E947209A82EA818FB2D64
:10113000FF777F2E76FE0BC0372D3E7FA51450F42F
:1011400074FE0AC072FC08C0372D3E7E05C0BA2C62
:10115000372D03C0BA2C01C0B52C34FF0DC0FE01E1
:10116000EA0DF11D8081803311F4397E09C032FF10
:1011700006C0B394B39404C0832F867809F0B39467
:1011800033FD13C030FF06C05A2CB31418F4530CAF
:101190005B18B32CB31468F4B70180E290E03C878D
:1011A0000E943A09B3943C85F5CFB31410F43B1870
:1011B00001C0312C34FF12C0B70180E390E03C87BE
:1011C0000E943A093C8532FF17C031FD03C088E711
:1011D00090E002C088E590E0B7010CC0832F8678CC
:1011E00059F031FF02C08BE201C080E237FD8DE291
:1011F000B70190E00E943A09A51438F4B70180E3E2
:1012000090E00E943A095A94F7CFAA94F401EA0DAB
:10121000F11D8081B70190E00E943A09A110F5CF3D
:10122000332009F451CEB70180E290E00E943A09E0
:101230003A94F6CFF7018681978102C08FEF9FEF36
:101240002C96E2E10C94EC09FC0105906150704091
:101250000110D8F7809590958E0F9F1F0895FC017F
:101260006150704001900110D8F7809590958E0FD5
:101270009F1F08950F931F93CF93DF93FB0123814B
:1012800021FD03C08FEF9FEF28C022FF16C04681CB
:101290005781248135814217530744F4A081B181DD
:1012A0009D012F5F3F4F318320838C9326813781AF
:1012B0002F5F3F4F3783268310C0EB01092F182F74
:1012C0000084F185E02D0995892BE1F68E819F81BF
:1012D00001969F838E83812F902FDF91CF911F9155
:1012E0000F910895FA01AA27283051F1203181F198
:1012F000E8946F936E7F6E5F7F4F8F4F9F4FAF4F1E
:10130000B1E03ED0B4E03CD0670F781F891F9A1F30
:10131000A11D680F791F8A1F911DA11D6A0F711DE4
:10132000811D911DA11D20D009F468943F912AE0F0
:10133000269F11243019305D3193DEF6CF010895D8
:10134000462F4770405D4193B3E00FD0C9F7F6CF09
:10135000462F4F70405D4A3318F0495D31FD4052D1
:10136000419302D0A9F7EACFB4E0A6959795879567
:1013700077956795BA95C9F7009761057105089546
:101380009B01AC010A2E06945795479537952795F2
:10139000BA95C9F7620F731F841F951FA01D08958A
:1013A0002F923F924F925F926F927F928F929F9275
:1013B000AF92BF92CF92DF92EF92FF920F931F9363
:1013C000CF93DF93CDB7DEB7CA1BDB0B0FB6F89414
:1013D000DEBF0FBECDBF09942A88398848885F8454
:1013E0006E847D848C849B84AA84B984C884DF80C5
:1013F000EE80FD800C811B81AA81B981CE0FD11DA9
:101400000FB6F894DEBF0FBECDBFED010895F8947E
:02141000FFCF0C
:0C141200010025642C25642C25640D00CD
:00000001FF
