:100000000C944C000C9474000C9474000C947400C8
:100010000C9474000C9474000C9474000C94740090
:100020000C9474000C9474000C9474000C945D0394
:100030000C9467030C9435040C9474000C947400B5
:100040000C9474000C9474000C9474000C94740060
:100050000C9474000C9474000C9474000C94740050
:100060000C9474000C947400084AD73B3BCE016E8C
:1000700084BCBFFDC12F3D6C74319ABD56833DDAFF
:100080003D00C77F11BED9E4BB4C3E916BAAAABE0E
:10009000000000803F00BC0711241FBECFEFD8E056
:1000A000DEBFCDBF11E0A0E0B1E0EEE7FBE102C0B2
:1000B00005900D92A231B107D9F721E0A2E1B1E09C
:1000C00001C01D92A834B207E1F710E0CCE4D0E003
:1000D00004C02197FE010E94CF07CB34D107C9F796
:1000E0000E9474050C94BD0D0C9400001092B90090
:1000F00088E48093B800089594EA9093BC009091AE
:10010000BC0097FFFCCF9091B900987F983021F008
:10011000903111F081E008958093BB0084E88093D2
:10012000BC008091BC0087FFFCCF8091B900887F24
:10013000883111F0803471F780E0089524EA34E8C2
:1001400044E92093BC009091BC0097FFFCCF9091B4
:10015000B900987F983011F0903199F78093BB00E7
:100160003093BC009091BC0097FFFCCF9091B900F8
:10017000987F903211F0983539F44093BC009091FB
:10018000BC0094FDFCCFDDCF08950C947C0084E985
:100190008093BC008091BC0084FDFCCF08958093C7
:1001A000BB0084E88093BC008091BC0087FFFCCF3B
:1001B0009091B900987F81E0983209F480E0089529
:1001C00084EC8093BC008091BC0087FFFCCF8091C1
:1001D000BB00089584E88093BC008091BC0087FF39
:1001E000FCCF8091BB0008951092C50089E18093F7
:1001F000C400E1ECF0E0808188618083E2ECF0E013
:1002000080818660808308958091C00087FFFCCF45
:100210008091C60008958091C00085FFFCCF609357
:10022000C60008950F931F93CF93DF938C01EB01CA
:100230006991662321F0C8010E940B01F9CFDF917B
:10024000CF911F910F910895CF92DF92EF92FF927D
:100250000F931F93CF93DF936C018B01EB017E0112
:10026000E01AF10AC6010E94040189938A3019F04C
:1002700098819111F4CFC701DF91CF911F910F9118
:10028000FF90EF90DF90CF90089563E50C94CE023D
:10029000CF93DF931F92CDB7DEB7FC0180818983B6
:1002A00048E06DE2CE0101960E94E8020F90DF91D6
:1002B000CF910895EF92FF920F931F93CF93DF9307
:1002C0001F92CDB7DEB78B0166E1CE0101960E9489
:1002D000CE02CE0101960E94D60266EACE010196B8
:1002E0000E94DE0262E3CE0101960E94DE02CE0190
:1002F00001960E94D60267EACE0101960E94DE02B4
:1003000061E0CE0101960E944F03B801CE01019633
:100310000E940F03E12CF12CB8016E0D7F1DCE0160
:1003200001960E940F038FEFE81AF80A85E0E8169D
:10033000F10491F760E0CE0101960E944F03B801ED
:100340006B5F7F4FCE0101960E940F030F90DF91EC
:10035000CF911F910F91FF90EF900895CF92DF9270
:10036000EF92FF920F931F93CF93DF93CDB7DEB73A
:1003700028970FB6F894DEBF0FBECDBF8C016B017E
:10038000CE0107960E94F400BE016F5F7F4FC80147
:100390000E945A01CE0101967C0186019CE0C90EA3
:1003A000D11CF701619171917F01072E000C880B20
:1003B000990B0E945A0927E73EEB4FE15DE30E944B
:1003C000150AF80161937193819391938F01EC1554
:1003D000FD0539F728960FB6F894DEBF0FBECDBFE6
:1003E000DF91CF911F910F91FF90EF90DF90CF9011
:1003F0000895CF93DF9300D000D000D0CDB7DEB703
:10040000BE016F5F7F4F0E945A0126960FB6F89487
:10041000DEBF0FBECDBFDF91CF9108951F93CF9365
:10042000DF9300D0CDB7DEB7162F66E1CE0101967F
:100430004A830E94CE02CE0101960E94D60266EA4D
:10044000CE0101960E94DE02612FCE0101960E942C
:10045000DE024A81642FCE0101960E94DE02CE01A7
:1004600001960E9459030F900F90DF91CF911F9139
:100470000895FF920F931F93CF93DF931F92CDB7F1
:10048000DEB7F62E8A0166E1CE0101960E94CE0209
:10049000CE0101960E94D60266EACE0101960E9424
:1004A000DE026F2DCE0101960E94DE02CE01019682
:1004B0000E94D60267EACE0101960E94DE02B801D0
:1004C000CE0101960E940F03CE0101960E945903AE
:1004D0000F90DF91CF911F910F91FF900895DF92C0
:1004E000EF92FF920F931F93CF93DF9300D0CDB77E
:1004F000DEB7D62E7A01CE0101960E94F40086EA7C
:100500000E947C0009EB10E0F8019081692F687F60
:10051000CE0101960E940B018FE39FE10197F1F755
:1005200000C000008D2D0E94CF00F8016081687F1F
:10053000CE0101960E940B018FE39FE10197F1F735
:1005400000C0000087EA0E94C5000E94EA00D82E81
:10055000F8016081687FCE0101960E940B018FE354
:100560009FE10197F1F700C000006D2DCE010196CB
:100570000E940B01EFE3FFE13197F1F700C00000AB
:10058000F701D0820E94C7000F900F90DF91CF91AA
:100590001F910F91FF90EF90DF900895FC01608311
:1005A00082E18093B8001092B900089584EA8093A4
:1005B000BC008091BC0087FFFCCF08956093BB0016
:1005C00084E88093BC008091BC0087FFFCCF089535
:1005D000EF92FF921F93CF93DF931F92CDB7DEB7B9
:1005E0007C01162F49830E94D602F7018081682F73
:1005F000660FC7010E94DE02612FC7010E94DE0262
:100600004981642FC7010E94DE0284E98093BC0007
:100610000F90DF91CF911F91FF90EF9008958091FF
:10062000BB00FB0180838091BC0084688093BC0088
:100630008091BC0087FFFCCF0895FF920F931F931A
:10064000CF93DF931F92CDB7DEB78C01F62E0E94B9
:10065000D602F8018081682F660FC8010E94DE0271
:100660006F2DC8010E94DE02C8010E94D602F80167
:100670006081660F6F5FC8010E94DE02BE016F5F7E
:100680007F4FC8010E940F0384E98093BC008981D9
:100690000F90DF91CF911F910F91FF900895ECEB98
:1006A000F0E0908180E46802B0011124692B60833E
:1006B000089584E98093BC0008951F920F920FB6AD
:1006C0000F9211240F900FBE0F901F9018951F923C
:1006D0000F920FB60F921124CF92DF92EF92FF92FA
:1006E0002F933F934F935F936F937F938F939F933A
:1006F000AF93BF93CF93DF93EF93FF93C0914601E6
:10070000D0914701C230D10549F5109247011092AE
:10071000460110923D0110923C0180E980938B00CC
:100720008FE380938A0038B181E090E0AC010090C3
:10073000000102C0440F551F0A94E2F7242F2095B0
:10074000232328B928B10090020102C0880F991F05
:100750000A94E2F78095822388B970C060913C01C9
:1007600070913D01072E000C880B990B0E945A09CD
:100770006B017C01FE01EE0FFF1FEC5FFE4F8081DD
:100780009181BC0180E090E00E94580920E030E0B7
:100790004AEF5CE30E94150A20E030E04AEF54E49F
:1007A0000E94D6079B01AC01C701B6010E94D60783
:1007B0000E94220970933D0160933C01CD2B21F4EE
:1007C000109285001092840080913D0180938B00EF
:1007D00080913C0180938A00E0E0F1E080E090E0CD
:1007E00061E070E020914601309147018217930744
:1007F00051F448B19B01008002C0220F331F0A94BC
:10080000E2F7242B0BC038B1AB01008002C0440FCB
:10081000551F0A94E2F7242F2095232328B93296F6
:10082000019719F081E090E0DDCF80914601909131
:10083000470101969093470180934601FF91EF9104
:10084000DF91CF91BF91AF919F918F917F916F91E8
:100850005F914F913F912F91FF90EF90DF90CF905C
:100860000F900FBE0F901F9018951F920F920FB60A
:100870000F9211240F900FBE0F901F90189520E932
:1008800020938B002FE320938A001092800022E0B7
:100890002093810027E020936F0024E031E0FC01E9
:1008A0003383228320E031E03183208378940895DC
:1008B00067B1DC01ED91FC91119721E030E0A901D5
:1008C000008002C0440F551F0A94E2F7462B47B937
:1008D00047B1ED91FC91028002C0220F331F0A94B0
:1008E000E2F7242B27B90895DC011296ED91FC91D3
:1008F00013972FEF3FEF3183208333832283BFEFA2
:100900002DE339E4B15020403040E1F700C0000051
:10091000DC011296ED91FC911397118210821382E3
:100920001282BFEF2DE339E4B15020403040E1F7AF
:1009300000C000000895FC012081FB013081FC0112
:100940003083FB012083089568E60C94CE02CF9398
:10095000DF931F92CDB7DEB7FC018081898341E030
:100960006EE3CE0101960E94E80248E166E1CE0105
:1009700001960E94E8024BE166E1CE0101960E94D9
:10098000E8020F90DF91CF910895EF92FF920F93BD
:100990001F93CF93DF931F92CDB7DEB78B0166E134
:1009A000CE0101960E94CE02CE0101960E94D6028F
:1009B00060EDCE0101960E94DE026DE1CE0101964E
:1009C0000E94DE02CE0101960E94D60261EDCE01A8
:1009D00001960E94DE0261E0CE0101960E944F0363
:1009E000E12CF12CB8016E0D7F1DCE0101960E9405
:1009F0000F038FEFE81AF80A85E0E816F10491F783
:100A000060E0CE0101960E944F03B8016B5F7F4FFB
:100A1000CE0101960E940F030F90DF91CF911F919D
:100A20000F91FF90EF900895AF92BF92CF92DF9217
:100A3000EF92FF920F931F93CF93DF93CDB7DEB763
:100A400028970FB6F894DEBF0FBECDBF8C017B0197
:100A5000CE0107960E94F400BE016F5F7F4FC80170
:100A60000E94C5048E010F5F1F4F670157018CE084
:100A7000A80EB11CF801619171918F01072E000C35
:100A8000880B990B0E945A0927E230EA49E85AE399
:100A90000E94150AF60161937193819391936F01FE
:100AA000EA15FB0539F720E030E040E551E4F701B5
:100AB00060817181828193810E94D507F7016083F3
:100AC00071838283938328960FB6F894DEBF0FBE9E
:100AD000CDBFDF91CF911F910F91FF90EF90DF90ED
:100AE000CF90BF90AF900895CF93DF93CDB7DEB78F
:100AF000C454D1090FB6F894DEBF0FBECDBF7E013E
:100B000021E3E20EF11CC7010E94F400CE01C4965D
:100B10000E9445018E010D5C1F4FC8010E94A40474
:100B2000CE018D960E943F04CE01C4960E944801DA
:100B3000C8010E94A704CE018D960E9458048FEF31
:100B400093EDA0E381509040A040E1F700C0000089
:100B5000CE018D960E947404529A8BEA9AEAAAEA10
:100B6000BEE380931C0190931D01A0931E01B093DE
:100B70001F018093180190931901A0931A01B0935B
:100B80001B0180E090E490931301809312011801FF
:100B90008E010F5F1F4F2496EFAE24972596FFAE70
:100BA0002597B4E0BBB9BE016F5D7F4FCE01C496FF
:100BB0000E94AE0189A09AA0ABA0BCA04DA05EA0EF
:100BC0006FA078A4A3019201C301B2010E94150A8B
:100BD0006DAB7EAB8FAB98AFC9A4DAA4EBA4FCA439
:100BE000A7019601C701B6010E94150A69AF7AAF45
:100BF0008BAF9CAFA5019401C501B4010E94150AF9
:100C00002DA93EA94FA958AD0E94D60729AD3AADEE
:100C10004BAD5CAD0E94D6070E94880A6093280104
:100C20007093290180932A0190932B01A7019601CB
:100C3000C301B2010E9455086093380170933901D5
:100C400080933A0190933B0129AD3AAD4BAD5CAD39
:100C50006DA97EA98FA998AD0E94D6070E94880A27
:100C60009B01AC01C501B40190580E9455086093E6
:100C70003001709331018093320190933301BE01B2
:100C80006B5E7F4FC1010E94140526E636E646E6FC
:100C90005FE360912401709125018091260190917C
:100CA00027010E94150A6B017C012DEC3CEC4CECF9
:100CB0005DE3609128017091290180912A01909152
:100CC0002B010E94150A9B01AC01C701B6010E94CD
:100CD000D607609328017093290180932A0190938D
:100CE0002B0160932401709325018093260190933A
:100CF000270180902C0190902D01A0902E01B090A2
:100D00002F0126E636E646E65FE3C501B4010E9400
:100D1000150A6B017C012DEC3CEC4CEC5DE3609121
:100D200030017091310180913201909133010E9424
:100D3000150A9B01AC01C701B6010E94D6076B01E1
:100D40007C01609330017093310180933201909364
:100D50003301A50194010E94D507C0922C01D092C5
:100D60002D01E0922E01F0922F01298D3A8D4B8DAD
:100D70005C8D0E94D6076DAB7EAB8FAB98AF809138
:100D80001C0190911D01A0911E01B0911F0189AF1E
:100D90009AAFABAFBCAF8091180190911901A091AF
:100DA0001A01B0911B0121968CAF9DAFAEAFBFAFC2
:100DB0002197A701960169AD7AAD8BAD9CAD0E94DC
:100DC000150A4B015C0120E030E040E05FE3219632
:100DD0006CAD7DAD8EAD9FAD21970E94150A2DA9FA
:100DE0003EA94FA958AD0E94150A9B01AC01C5014F
:100DF000B4010E94D60720E030E040E450E40E94B5
:100E0000150A4B015C010E942209672B49F480926C
:100E1000200190922101A0922201B09223010CC0E6
:100E200080E090E0A0E8BFE380932001909321014F
:100E3000A0932201B0932301AFA5B8A92396BFAF19
:100E4000AEAF239740902001509021016090220185
:100E5000709023016091120170911301072E000C14
:100E6000880B990B0E945A094B015C01A301920166
:100E700060E070E080E89FE30E94D5079B01AC0131
:100E8000C501B4010E94150A0E9429092396EEADFE
:100E9000FFAD2397718360836091120170911301FC
:100EA000072E000C880B990B0E945A094B015C011C
:100EB00020E030E040E85FE3C301B2010E94D607C2
:100EC0009B01AC01C501B4010E94150A0E942909C9
:100ED0002396AEADBFAD239713967C936E93129776
:100EE00021962CAD3DAD4EAD5FAD2197C501B4014E
:100EF0000E94150A2DA93EA94FA958AD0E94150AB6
:100F00000E9422097F936F9329AD3AAD4BAD5CAD42
:100F1000C501B4010E94150AA70196010E94150A95
:100F20000E9422097F936F93A3019201C501B4012E
:100F30000E94150A0E9422097F936F93A8E0B1E0F6
:100F4000BF93AF931F930F930E94E50AB8012496B5
:100F50008FAD249725969FAD25970E9412011BB84F
:100F60008FED9EE20197F1F700C000000FB6F894F4
:100F7000DEBF0FBECDBF15CE88B1EEE3F1E090E04D
:100F80009183808388B190E09383828388B190E0DD
:100F90009583848388B190E0978386830895EE0FCC
:100FA000FF1F0590F491E02D09945058BB27AA2704
:100FB0000E94ED070C94D3090E94C50938F00E94E5
:100FC000CC0920F039F49F3F19F426F40C949B09C6
:100FD0000EF4E095E7FB0C949509E92F0E94E409D3
:100FE00058F3BA17620773078407950720F079F45E
:100FF000A6F50C94060A0EF4E0950B2EBA2FA02D40
:101000000B01B90190010C01CA01A0011124FF27B5
:10101000591B99F0593F50F4503E68F11A16F040B0
:10102000A22F232F342F4427585FF3CF46953795AF
:101030002795A795F0405395C9F77EF41F16BA0B74
:10104000620B730B840BBAF09150A1F0FF0FBB1F22
:10105000661F771F881FC2F70EC0BA0F621F731F6B
:10106000841F48F4879577956795B795F7959E3FC8
:1010700008F0B0CF9395880F08F09927EE0F979559
:10108000879508950E94C50960F080E891E009F411
:101090009EEF0E94CC0928F040E851E071F45EEF29
:1010A0000CC00C949B090C94060AE92FE0780E946E
:1010B000E40940F3092E052AB1F32617370748073C
:1010C000590738F00E2E07F8E02569F0E025E064B6
:1010D0000AC0EF6307F8009407FADB01B9019D012C
:1010E000DC01CA01AD01EF930E94C7080E94D30939
:1010F0000E9485085F91552339F02BED3FE049E4CC
:1011000050FD49EC0C94D6070895DF93DD27B92FE5
:10111000BF7740E85FE31616170648075B0718F429
:10112000D92F0E940D0A9F938F937F936F930E94F4
:10113000C80AE8E6F0E00E949E090E94D3092F91B8
:101140003F914F915F910E94280ADD2351F0905802
:10115000A2EA2AED3FE049EC5FE3D0785D270E94E8
:10116000ED07DF910C94D3090E94CC0958F00E943E
:10117000C50940F029F45F3F29F00C9495095111FD
:101180000C94070A0C949B090E94E40968F39923C4
:10119000B1F3552391F3951B550BBB27AA27621773
:1011A0007307840738F09F5F5F4F220F331F441F80
:1011B000AA1FA9F335D00E2E3AF0E0E832D09150B4
:1011C0005040E695001CCAF72BD0FE2F29D0660FA1
:1011D000771F881FBB1F261737074807AB07B0E8E4
:1011E00009F0BB0B802DBF01FF2793585F4F3AF0EA
:1011F0009E3F510578F00C9495090C94070A5F3FC7
:10120000E4F3983ED4F3869577956795B795F7956F
:101210009F5FC9F7880F911D9695879597F9089557
:10122000E1E0660F771F881FBB1F621773078407F3
:10123000BA0720F0621B730B840BBA0BEE1F88F702
:10124000E09508950E9429096894B1110C94070A49
:1012500008950E94EC0988F09F5798F0B92F9927BC
:10126000B751B0F0E1F0660F771F881F991F1AF091
:10127000BA95C9F714C0B13091F00E94060AB1E0E6
:1012800008950C94060A672F782F8827B85F39F0E5
:10129000B93FCCF3869577956795B395D9F73EF42A
:1012A00090958095709561957F4F8F4F9F4F0895D2
:1012B000E89409C097FB3EF49095809570956195F0
:1012C0007F4F8F4F9F4F9923A9F0F92F96E9BB27A6
:1012D0009395F695879577956795B795F111F8CF22
:1012E000FAF4BB0F11F460FF1BC06F5F7F4F8F4F8D
:1012F0009F4F16C0882311F096E911C0772321F083
:101300009EE8872F762F05C0662371F096E8862F1A
:1013100070E060E02AF09A95660F771F881FDAF771
:10132000880F9695879597F9089597F99F6780E8B4
:1013300070E060E008959FEF80EC0895DF93CF9315
:101340001F930F93FF92EF92DF927B018C016894C1
:1013500006C0DA2EEF010E94280AFE01E894A5914A
:101360002591359145915591A6F3EF010E94ED0726
:10137000FE019701A801DA9469F7DF90EF90FF90E2
:101380000F911F91CF91DF91089500240A941616B2
:10139000170618060906089500240A941216130663
:1013A000140605060895092E0394000C11F48823F1
:1013B00052F0BB0F40F4BF2B11F460FF04C06F5F0D
:1013C0007F4F8F4F9F4F089557FD9058440F551FE3
:1013D00059F05F3F71F04795880F97FB991F61F0B7
:1013E0009F3F79F087950895121613061406551F2E
:1013F000F2CF4695F1DF08C0161617061806991F9A
:10140000F1CF86957105610508940895E894BB278E
:1014100066277727CB0197F908959B01AC0160E01F
:1014200070E080E89FE30C94CC0A0E94280A0C9498
:10143000D3090E94C50938F00E94CC0920F09523F9
:1014400011F00C9495090C949B0911240C94070A33
:101450000E94E40970F3959FC1F3950F50E0551F6A
:10146000629FF001729FBB27F00DB11D639FAA27F9
:10147000F00DB11DAA1F649F6627B00DA11D661F48
:10148000829F2227B00DA11D621F739FB00DA11D69
:10149000621F839FA00D611D221F749F3327A00D23
:1014A000611D231F849F600D211D822F762F6A2FBF
:1014B00011249F5750409AF0F1F088234AF0EE0F24
:1014C000FF1FBB1F661F771F881F91505040A9F751
:1014D0009E3F510580F00C9495090C94070A5F3FDC
:1014E000E4F3983ED4F3869577956795B795F7958D
:1014F000E7959F5FC1F7FE2B880F911D9695879505
:1015000097F9089519F416F40C949B090C94D00AD9
:101510000E94EC09B8F39923C9F3B6F39F57550B12
:1015200087FF0E94DE0A0024A0E640EA900180586E
:101530005695979528F4805C660F771F881F20F0DA
:1015400026173707480730F4621B730B840B2029DA
:1015500031294A2BA69517940794202531254A272F
:1015600058F7660F771F881F20F0261737074807A0
:1015700030F4620B730B840B200D311D411DA095BF
:1015800081F7B901842F9158880F96958795089512
:101590009B01AC010C94150A0E94C4080C94D30959
:1015A0009F3F31F0915020F4879577956795B795D7
:1015B000880F911D9695879597F908959150504001
:1015C000660F771F881FD2F70895AEE0B0E0EBEE0C
:1015D000FAE00C94940D0D891E8986E08C831A83A1
:1015E00009838FEF9FE79E838D83AE01475E5F4F38
:1015F0006F89788DCE0101960E94080B2F81388566
:10160000F801E20FF31F10822E96E4E00C94B00D67
:10161000ACE0B0E0EEE0FBE00C94860D7C016B01E9
:101620008A01FC0117821682838181FFBDC1CE0130
:1016300001964C01F7019381F60193FD859193FF8B
:1016400081916F01882309F4ABC1853239F493FD90
:10165000859193FF81916F01853229F4B70190E064
:101660000E94F00CE7CF512C312C20E02032A0F466
:101670008B3269F030F4803259F0833269F42061A2
:101680002CC08D3239F0803339F4216026C02260BD
:10169000246023C0286021C027FD27C030ED380F0B
:1016A0003A3078F426FF06C0FAE05F9E300D112430
:1016B000532E13C08AE0389E300D1124332E206241
:1016C0000CC08E3221F426FD6BC1206406C08C361E
:1016D00011F4206802C0883641F4F60193FD85912B
:1016E00093FF81916F018111C1CF982F9F7D9554F8
:1016F000933028F40C5F1F4FFFE3F9830DC083364E
:1017000031F0833771F0833509F05BC022C0F801F6
:10171000808189830E5F1F4F44244394512C5401D0
:1017200015C03801F2E06F0E711CF801A080B18085
:1017300026FF03C0652D70E002C06FEF7FEFC5018B
:101740002C870E94E50C2C0183012C852F77222EFB
:1017500017C03801F2E06F0E711CF801A080B18053
:1017600026FF03C0652D70E002C06FEF7FEFC5015B
:101770002C870E94DA0C2C012C852068222E8301F4
:1017800023FC1BC0832D90E048165906B0F4B70126
:1017900080E290E00E94F00C3A94F4CFF50127FC2F
:1017A000859127FE81915F01B70190E00E94F00CC6
:1017B00031103A94F1E04F1A51084114510471F775
:1017C000E5C0843611F0893639F5F80127FF07C0E6
:1017D00060817181828193810C5F1F4F08C060819D
:1017E0007181072E000C880B990B0E5F1F4F2F760F
:1017F000722E97FF09C090958095709561957F4FE7
:101800008F4F9F4F2068722E2AE030E0A4010E9483
:10181000280DA82EA81844C0853729F42F7EB22E93
:101820002AE030E025C0F22FF97FBF2E8F36C1F0BD
:1018300018F4883579F0B4C0803719F0883721F072
:10184000AFC02F2F2061B22EB4FE0DC08B2D84604F
:10185000B82E09C024FF0AC09F2F9660B92E06C07B
:1018600028E030E005C020E130E002C020E132E0B5
:10187000F801B7FE07C060817181828193810C5F9E
:101880001F4F06C06081718180E090E00E5F1F4FA6
:10189000A4010E94280DA82EA818FB2DFF777F2EEB
:1018A00076FE0BC0372D3E7FA51450F474FE0AC09F
:1018B00072FC08C0372D3E7E05C0BA2C372D03C000
:1018C000BA2C01C0B52C34FF0DC0FE01EA0DF11D8C
:1018D0008081803311F4397E09C032FF06C0B39491
:1018E000B39404C0832F867809F0B39433FD13C0FA
:1018F00030FF06C05A2CB31418F4530C5B18B32CE9
:10190000B31468F4B70180E290E03C870E94F00CC9
:10191000B3943C85F5CFB31410F43B1801C0312CBF
:1019200034FF12C0B70180E390E03C870E94F00CC6
:101930003C8532FF17C031FD03C088E790E002C04C
:1019400088E590E0B7010CC0832F867859F031FF0D
:1019500002C08BE201C080E237FD8DE2B70190E06A
:101960000E94F00CA51438F4B70180E390E00E94C7
:10197000F00C5A94F7CFAA94F401EA0DF11D80817E
:10198000B70190E00E94F00CA110F5CF332009F4CC
:1019900051CEB70180E290E00E94F00C3A94F6CF6D
:1019A000F7018681978102C08FEF9FEF2C96E2E1CD
:1019B0000C94A20DFC010590615070400110D8F705
:1019C000809590958E0F9F1F0895FC016150704087
:1019D00001900110D8F7809590958E0F9F1F089564
:1019E0000F931F93CF93DF93FB01238121FD03C04E
:1019F0008FEF9FEF28C022FF16C0468157812481B8
:101A000035814217530744F4A081B1819D012F5FB6
:101A10003F4F318320838C93268137812F5F3F4F47
:101A20003783268310C0EB01092F182F0084F1851E
:101A3000E02D0995892BE1F68E819F8101969F8388
:101A40008E83812F902FDF91CF911F910F91089559
:101A5000FA01AA27283051F1203181F1E8946F93DF
:101A60006E7F6E5F7F4F8F4F9F4FAF4FB1E03ED085
:101A7000B4E03CD0670F781F891F9A1FA11D680F23
:101A8000791F8A1F911DA11D6A0F711D811D911D56
:101A9000A11D20D009F468943F912AE0269F1124CB
:101AA0003019305D3193DEF6CF010895462F47702F
:101AB000405D4193B3E00FD0C9F7F6CF462F4F708A
:101AC000405D4A3318F0495D31FD4052419302D0E8
:101AD000A9F7EACFB4E0A69597958795779567958E
:101AE000BA95C9F700976105710508959B01AC018E
:101AF0000A2E06945795479537952795BA95C9F7B5
:101B0000620F731F841F951FA01D08952F923F928F
:101B10004F925F926F927F928F929F92AF92BF92FD
:101B2000CF92DF92EF92FF920F931F93CF93DF93A9
:101B3000CDB7DEB7CA1BDB0B0FB6F894DEBF0FBE06
:101B4000CDBF09942A88398848885F846E847D8453
:101B50008C849B84AA84B984C884DF80EE80FD8055
:101B60000C811B81AA81B981CE0FD11D0FB6F894CB
:0E1B7000DEBF0FBECDBFED010895F894FFCF8C
:101B7E00000001000100010025642C25642C256461
:021B8E000D0048
:00000001FF
