:100000000C944C000C9474000C9474000C947400C8
:100010000C9474000C9474000C9474000C94740090
:100020000C9474000C9474000C9474000C945D0394
:100030000C9467030C9454040C9474000C94740096
:100040000C9474000C9474000C9474000C94740060
:100050000C9474000C9474000C9474000C94740050
:100060000C9474000C947400084AD73B3BCE016E8C
:1000700084BCBFFDC12F3D6C74319ABD56833DDAFF
:100080003D00C77F11BED9E4BB4C3E916BAAAABE0E
:10009000000000803F00D20511241FBECFEFD8E042
:1000A000DEBFCDBF11E0A0E0B1E0E2EDF7E102C0BC
:1000B00005900D92A431B107D9F721E0A4E1B1E098
:1000C00001C01D92A232B207E1F710E0CCE4D0E00B
:1000D00004C02197FE010E94F905CB34D107C9F76E
:1000E0000E94B0040C94E70B0C9400001092B9002D
:1000F00088E48093B800089594EA9093BC009091AE
:10010000BC0097FFFCCF9091B900987F983021F008
:10011000903111F081E008958093BB0084E88093D2
:10012000BC008091BC0087FFFCCF8091B900887F24
:10013000883111F0803471F780E0089524EA34E8C2
:1001400044E92093BC009091BC0097FFFCCF9091B4
:10015000B900987F983011F0903199F78093BB00E7
:100160003093BC009091BC0097FFFCCF9091B900F8
:10017000987F903211F0983539F44093BC009091FB
:10018000BC0094FDFCCFDDCF08950C947C0084E985
:100190008093BC008091BC0084FDFCCF08958093C7
:1001A000BB0084E88093BC008091BC0087FFFCCF3B
:1001B0009091B900987F81E0983209F480E0089529
:1001C00084EC8093BC008091BC0087FFFCCF8091C1
:1001D000BB00089584E88093BC008091BC0087FF39
:1001E000FCCF8091BB0008951092C50089E18093F7
:1001F000C400E1ECF0E0808188618083E2ECF0E013
:1002000080818660808308958091C00087FFFCCF45
:100210008091C60008958091C00085FFFCCF609357
:10022000C60008950F931F93CF93DF938C01EB01CA
:100230006991662321F0C8010E940B01F9CFDF917B
:10024000CF911F910F910895CF92DF92EF92FF927D
:100250000F931F93CF93DF936C018B01EB017E0112
:10026000E01AF10AC6010E94040189938A3019F04C
:1002700098819111F4CFC701DF91CF911F910F9118
:10028000FF90EF90DF90CF90089563E50C94CE023D
:10029000CF93DF931F92CDB7DEB7FC0180818983B6
:1002A00048E06DE2CE0101960E94E8020F90DF91D6
:1002B000CF910895EF92FF920F931F93CF93DF9307
:1002C0001F92CDB7DEB78B0166E1CE0101960E9489
:1002D000CE02CE0101960E94D60266EACE010196B8
:1002E0000E94DE0262E3CE0101960E94DE02CE0190
:1002F00001960E94D60267EACE0101960E94DE02B4
:1003000061E0CE0101960E944F03B801CE01019633
:100310000E940F03E12CF12CB8016E0D7F1DCE0160
:1003200001960E940F038FEFE81AF80A85E0E8169D
:10033000F10491F760E0CE0101960E944F03B801ED
:100340006B5F7F4FCE0101960E940F030F90DF91EC
:10035000CF911F910F91FF90EF900895CF92DF9270
:10036000EF92FF920F931F93CF93DF93CDB7DEB73A
:1003700028970FB6F894DEBF0FBECDBF8C016B017E
:10038000CE0107960E94F400BE016F5F7F4FC80147
:100390000E945A01CE0101967C0186019CE0C90EA3
:1003A000D11CF701619171917F01072E000C880B20
:1003B000990B0E94880727E73EEB4FE15DE30E941F
:1003C0004308F80161937193819391938F01EC1528
:1003D000FD0539F728960FB6F894DEBF0FBECDBFE6
:1003E000DF91CF911F910F91FF90EF90DF90CF9011
:1003F0000895CF93DF9300D000D000D0CDB7DEB703
:10040000BE016F5F7F4F0E945A0126960FB6F89487
:10041000DEBF0FBECDBFDF91CF9108951F93CF9365
:10042000DF9300D0CDB7DEB7162F66E1CE0101967F
:100430004A830E94CE02CE0101960E94D60266EA4D
:10044000CE0101960E94DE02612FCE0101960E942C
:10045000DE024A81642FCE0101960E94DE02CE01A7
:1004600001960E9459030F900F90DF91CF911F9139
:100470000895FF920F931F93CF93DF931F92CDB7F1
:10048000DEB7F62E8A0166E1CE0101960E94CE0209
:10049000CE0101960E94D60266EACE0101960E9424
:1004A000DE026F2DCE0101960E94DE02CE01019682
:1004B0000E94D60267EACE0101960E94DE02B801D0
:1004C000CE0101960E940F03CE0101960E945903AE
:1004D0000F90DF91CF911F910F91FF900895DF92C0
:1004E000EF92FF920F931F93CF93DF9300D0CDB77E
:1004F000DEB7D62E7A01CE0101960E94F40086EA7C
:100500000E947C0009EB10E0F8019081692F687F60
:10051000CE0101960E940B018FE39FE10197F1F755
:1005200000C000008D2D0E94CF00F8016081687F1F
:10053000CE0101960E940B018FE39FE10197F1F735
:1005400000C0000087EA0E94C5000E94EA00D82E81
:10055000F8016081687FCE0101960E940B018FE354
:100560009FE10197F1F700C000006D2DCE010196CB
:100570000E940B01EFE3FFE13197F1F700C00000AB
:10058000F701D0820E94C7000F900F90DF91CF91AA
:100590001F910F91FF90EF90DF900895FC01608311
:1005A00082E18093B8001092B900089584EA8093A4
:1005B000BC008091BC0087FFFCCF08956093BB0016
:1005C00084E88093BC008091BC0087FFFCCF089535
:1005D000EF92FF921F93CF93DF931F92CDB7DEB7B9
:1005E0007C01162F49830E94D602F7018081682F73
:1005F000660FC7010E94DE02612FC7010E94DE0262
:100600004981642FC7010E94DE0284E98093BC0007
:100610000F90DF91CF911F91FF90EF9008958091FF
:10062000BB00FB0180838091BC0084688093BC0088
:100630008091BC0087FFFCCF0895FF920F931F931A
:10064000CF93DF931F92CDB7DEB78C01F62E0E94B9
:10065000D602F8018081682F660FC8010E94DE0271
:100660006F2DC8010E94DE02C8010E94D602F80167
:100670006081660F6F5FC8010E94DE02BE016F5F7E
:100680007F4FC8010E940F0384E98093BC008981D9
:100690000F90DF91CF911F910F91FF900895ECEB98
:1006A000F0E0908180E46802B0011124692B60833E
:1006B000089584E98093BC0008951F920F920FB6AD
:1006C0000F9211240F900FBE0F901F9018951F923C
:1006D0000F920FB60F921124CF92DF92EF92FF92FA
:1006E0000F931F932F933F934F935F936F937F933A
:1006F0008F939F93AF93BF93EF93FF93CF93DF932A
:10070000CDB7DEB72C97DEBFCDBF00912001109191
:10071000210101301105D1F4109221011092200124
:10072000109215011092140180E980938B008FE3E1
:1007300080938A0088B100901E0102C0000F111F33
:100740000A94E2F70095082308B98FC0609114015C
:1007500070911501072E000C880B990B0E948807D9
:100760006B017C01000F111FF801E050FF4F8081E9
:100770009181BC0180E090E00E94860720E030E09B
:100780004AEF5CE30E94430820E030E04AEF54E483
:100790000E9400069B01AC01C701B6010E94000641
:1007A0000E9450077093150160931401CE010B96BF
:1007B0000E94F400E0912001F0912101EE0FFF1F53
:1007C000E050FF4F81818F9380818F938FE091E084
:1007D0009F938F938E010F5F1F4F1F930F930E9464
:1007E0000F09B801CE010B960E9412010F900F90D5
:1007F0000F900F900F900F90809120019091210108
:10080000892B21F4109285001092840080911501AB
:1008100080938B008091140180938A008091200145
:100820009091210128B1892B61F081E090E0009046
:100830001E0102C0880F991F0A94E2F78095822357
:100840000AC081E090E000901E0102C0880F991F4D
:100850000A94E2F7822B88B98091200190912101BE
:10086000019690932101809320012C960FB6F89465
:10087000DEBF0FBECDBFDF91CF91FF91EF91BF9152
:10088000AF919F918F917F916F915F914F913F9128
:100890002F911F910F91FF90EF90DF90CF900F90CD
:1008A0000FBE0F901F9018951F920F920FB60F92C8
:1008B00011240F900FBE0F901F90189520E92093E0
:1008C0008B002FE320938A001092800022E0209377
:1008D000810027E020936F0020E031E0FC013383AA
:1008E00022832EE131E0318320837894089527B16B
:1008F000DC01ED91FC9181E090E0008002C0880F66
:10090000991F0A94E2F7822B87B90895CF93DF935A
:10091000DC011296ED91FC9113972FEF3FEF31839D
:100920002083E6ECF0E02083BFEFCDE3D9E4B150C3
:10093000C040D040E1F700C00000EC01AA81BB81BB
:100940001D921C921082DFEF2DE339E4D15020403C
:100950003040E1F700C00000DF91CF910895089585
:10096000CF93DF93CDB7DEB7AA970FB6F894DEBF6B
:100970000FBECDBFCE014B960E94F4007E012DE14B
:10098000E20EF11CC7010E944501C7010E94480107
:10099000CE0147960E945E04CE0147960E947704DE
:1009A0008FEF93EDA0E381509040A040E1F700C0AD
:1009B0000000CE0147960E948604529A14E00E2D44
:1009C000FAA61E01BDE02B0E311C1BB9BE016F5FE4
:1009D0007F4F802F9AA50E94AE0149805A806B807C
:1009E0007C806D817E818F8198859B01AC010E9406
:1009F00043086B017C0169857A858B859C859B0109
:100A0000AC010E9443084B015C01A3019201C301A8
:100A1000B2010E944308A70196010E940006A501A9
:100A200094010E9400060E94B6086EA37FA388A7C7
:100A300099A7A5019401C701B6010E9400060E9472
:100A4000B6089B01AC01C301B20190580E947F0619
:100A50006B017C0126E636E646E65FE36AA17BA1F0
:100A60008CA19DA10E9443084B015C012DEC3CEC44
:100A70004CEC5DE36EA17FA188A599A50E94430877
:100A80009B01AC01C501B4010E9400066AA37BA3CF
:100A90008CA39DA326E636E646E65FE36E8D7F8D4A
:100AA00088A199A10E9443084B015C0120E030E03D
:100AB00044E353E4C701B6010E94430823EC35EF39
:100AC00048E450E40E94DE062DEC3CEC4CEC5DE387
:100AD0000E9443089B01AC01C501B4010E940006BD
:100AE0006E8F7F8F88A399A320E030E842E953E41A
:100AF0000E9443080E94500780E4E82E80E3F82E0D
:100B0000E61AF70AE98DFA8DF182E08220E030E002
:100B100048E452E4C301B2010E9443080E94500716
:100B20007F936F9320E030E040E251E46E8D7F8D43
:100B300088A199A10E9443080E9450077F936F9358
:100B400020E030E048EC51E46AA17BA18CA19DA19A
:100B50000E9443080E9450077F936F93C70164E689
:100B600070E00E94E5057F936F93A2E0B1E0BF9330
:100B7000AF933F922F920E940F09B101CE014B9685
:100B80000E9412011BB88FEF96E7A1E081509040C0
:100B9000A040E1F700C000000FB6F894DEBF0FBE22
:100BA000CDBF13CF88B1E6E1F1E090E0918380837F
:100BB00088B190E09383828388B190E095838483A9
:100BC00088B190E0978386830895AA1BBB1B51E1EF
:100BD00007C0AA1FBB1FA617B70710F0A61BB70BAD
:100BE000881F991F5A95A9F780959095BC01CD0152
:100BF0000895EE0FFF1F0590F491E02D09945058D1
:100C0000BB27AA270E9417060C9401080E94F3072D
:100C100038F00E94FA0720F039F49F3F19F426F4C7
:100C20000C94C9070EF4E095E7FB0C94C307E92F79
:100C30000E94120858F3BA176207730784079507D2
:100C400020F079F4A6F50C9434080EF4E0950B2E00
:100C5000BA2FA02D0B01B90190010C01CA01A0010E
:100C60001124FF27591B99F0593F50F4503E68F169
:100C70001A16F040A22F232F342F4427585FF3CFAA
:100C8000469537952795A795F0405395C9F77EF47B
:100C90001F16BA0B620B730B840BBAF09150A1F0C4
:100CA000FF0FBB1F661F771F881FC2F70EC0BA0F4A
:100CB000621F731F841F48F4879577956795B795D2
:100CC000F7959E3F08F0B0CF9395880F08F09927CD
:100CD000EE0F9795879508950E94F30760F080E8DE
:100CE00091E009F49EEF0E94FA0728F040E851E0F5
:100CF00071F45EEF0CC00C94C9070C943408E92F12
:100D0000E0780E94120840F3092E052AB1F3261755
:100D100037074807590738F00E2E07F8E02569F025
:100D2000E025E0640AC0EF6307F8009407FADB01EE
:100D3000B9019D01DC01CA01AD01EF930E94F506E6
:100D40000E9401080E94AF065F91552339F02BEDF8
:100D50003FE049E450FD49EC0C9400060895DF9310
:100D6000DD27B92FBF7740E85FE31616170648075F
:100D70005B0718F4D92F0E943B089F938F937F93B2
:100D80006F930E94F608E8E6F0E00E94CC070E940C
:100D900001082F913F914F915F910E945608DD23EA
:100DA00051F09058A2EA2AED3FE049EC5FE3D07899
:100DB0005D270E941706DF910C9401080E94F2063D
:100DC0000C9401080E94FA0758F00E94F30740F0C3
:100DD00029F45F3F29F00C94C30751110C94350896
:100DE0000C94C9070E94120868F39923B1F35523A4
:100DF00091F3951B550BBB27AA276217730784072E
:100E000038F09F5F5F4F220F331F441FAA1FA9F3C3
:100E100035D00E2E3AF0E0E832D091505040E695B1
:100E2000001CCAF72BD0FE2F29D0660F771F881F12
:100E3000BB1F261737074807AB07B0E809F0BB0B05
:100E4000802DBF01FF2793585F4F3AF09E3F510519
:100E500078F00C94C3070C9435085F3FE4F3983E98
:100E6000D4F3869577956795B795F7959F5FC9F702
:100E7000880F911D9695879597F90895E1E0660F83
:100E8000771F881FBB1F621773078407BA0720F0FC
:100E9000621B730B840BBA0BEE1F88F7E095089565
:100EA0000E9457076894B1110C94350808950E9468
:100EB0001A0888F09F5798F0B92F9927B751B0F0CA
:100EC000E1F0660F771F881F991F1AF0BA95C9F7CE
:100ED00014C0B13091F00E943408B1E008950C9430
:100EE0003408672F782F8827B85F39F0B93FCCF3E3
:100EF000869577956795B395D9F73EF4909580954B
:100F0000709561957F4F8F4F9F4F0895E89409C06A
:100F100097FB3EF490958095709561957F4F8F4F2C
:100F20009F4F9923A9F0F92F96E9BB279395F69542
:100F3000879577956795B795F111F8CFFAF4BB0FC0
:100F400011F460FF1BC06F5F7F4F8F4F9F4F16C024
:100F5000882311F096E911C0772321F09EE8872FAE
:100F6000762F05C0662371F096E8862F70E060E06A
:100F70002AF09A95660F771F881FDAF7880F9695E3
:100F8000879597F9089597F99F6780E870E060E08A
:100F900008959FEF80EC0895DF93CF931F930F93F5
:100FA000FF92EF92DF927B018C01689406C0DA2EEB
:100FB000EF010E945608FE01E894A5912591359114
:100FC00045915591A6F3EF010E941706FE01970186
:100FD000A801DA9469F7DF90EF90FF900F911F91CD
:100FE000CF91DF91089500240A941616170618066B
:100FF0000906089500240A9412161306140605061D
:101000000895092E0394000C11F4882352F0BB0FAD
:1010100040F4BF2B11F460FF04C06F5F7F4F8F4F10
:101020009F4F089557FD9058440F551F59F05F3F4B
:1010300071F04795880F97FB991F61F09F3F79F0FA
:1010400087950895121613061406551FF2CF46957C
:10105000F1DF08C0161617061806991FF1CF8695FE
:101060007105610508940895E894BB2766277727E2
:10107000CB0197F908959B01AC0160E070E080E836
:101080009FE30C94DE060E9456080C9401080E940F
:10109000F30738F00E94FA0720F0952311F00C9422
:1010A000C3070C94C90711240C9435080E94120838
:1010B00070F3959FC1F3950F50E0551F629FF001AB
:1010C000729FBB27F00DB11D639FAA27F00DB11DC4
:1010D000AA1F649F6627B00DA11D661F829F22274D
:1010E000B00DA11D621F739FB00DA11D621F839FD4
:1010F000A00D611D221F749F3327A00D611D231FAA
:10110000849F600D211D822F762F6A2F11249F57F7
:1011100050409AF0F1F088234AF0EE0FFF1FBB1FFA
:10112000661F771F881F91505040A9F79E3F5105B9
:1011300080F00C94C3070C9435085F3FE4F3983EAD
:10114000D4F3869577956795B795F795E7959F5F63
:10115000C1F7FE2B880F911D9695879597F90895F5
:1011600019F416F40C94C9070C94FA080E941A0892
:10117000B8F39923C9F3B6F39F57550B87FF0E9425
:1011800008090024A0E640EA9001805856959795FA
:1011900028F4805C660F771F881F20F0261737071A
:1011A000480730F4621B730B840B202931294A2B2A
:1011B000A69517940794202531254A2758F7660FDE
:1011C000771F881F20F026173707480730F4620B77
:1011D000730B840B200D311D411DA09581F7B901C2
:1011E000842F9158880F9695879508959B01AC019F
:1011F0000C9443089F3F31F0915020F487957795E8
:101200006795B795880F911D9695879597F90895DD
:1012100091505040660F771F881FD2F70895AEE0B7
:10122000B0E0E5E1F9E00C94BE0B0D891E8986E083
:101230008C831A8309838FEF9FE79E838D83AE0192
:10124000475E5F4F6F89788DCE0101960E9432090B
:101250002F813885F801E20FF31F10822E96E4E00B
:101260000C94DA0BACE0B0E0E8E3F9E00C94B00BDE
:101270007C016B018A01FC0117821682838181FF48
:10128000BDC1CE0101964C01F7019381F60193FD9A
:10129000859193FF81916F01882309F4ABC1853259
:1012A00039F493FD859193FF81916F01853229F483
:1012B000B70190E00E941A0BE7CF512C312C20E0AF
:1012C0002032A0F48B3269F030F4803259F083324E
:1012D00069F420612CC08D3239F0803339F42160FB
:1012E00026C02260246023C0286021C027FD27C0BB
:1012F00030ED380F3A3078F426FF06C0FAE05F9EF2
:10130000300D1124532E13C08AE0389E300D112465
:10131000332E20620CC08E3221F426FD6BC1206476
:1013200006C08C3611F4206802C0883641F4F601FC
:1013300093FD859193FF81916F018111C1CF982F0A
:101340009F7D9554933028F40C5F1F4FFFE3F98382
:101350000DC0833631F0833771F0833509F05BC0FF
:1013600022C0F801808189830E5F1F4F442443947B
:10137000512C540115C03801F2E06F0E711CF801B8
:10138000A080B18026FF03C0652D70E002C06FEF22
:101390007FEFC5012C870E940F0B2C0183012C8548
:1013A0002F77222E17C03801F2E06F0E711CF80162
:1013B000A080B18026FF03C0652D70E002C06FEFF2
:1013C0007FEFC5012C870E94040B2C012C8520681F
:1013D000222E830123FC1BC0832D90E04816590662
:1013E000B0F4B70180E290E00E941A0B3A94F4CF77
:1013F000F50127FC859127FE81915F01B70190E0FF
:101400000E941A0B31103A94F1E04F1A510841141E
:10141000510471F7E5C0843611F0893639F5F801C9
:1014200027FF07C060817181828193810C5F1F4F0C
:1014300008C060817181072E000C880B990B0E5F2C
:101440001F4F2F76722E97FF09C09095809570954B
:1014500061957F4F8F4F9F4F2068722E2AE030E0BA
:10146000A4010E94520BA82EA81844C0853729F465
:101470002F7EB22E2AE030E025C0F22FF97FBF2E5A
:101480008F36C1F018F4883579F0B4C0803719F080
:10149000883721F0AFC02F2F2061B22EB4FE0DC0CF
:1014A0008B2D8460B82E09C024FF0AC09F2F966040
:1014B000B92E06C028E030E005C020E130E002C0CF
:1014C00020E132E0F801B7FE07C0608171818281BE
:1014D00093810C5F1F4F06C06081718180E090E0B6
:1014E0000E5F1F4FA4010E94520BA82EA818FB2DBF
:1014F000FF777F2E76FE0BC0372D3E7FA51450F46C
:1015000074FE0AC072FC08C0372D3E7E05C0BA2C9E
:10151000372D03C0BA2C01C0B52C34FF0DC0FE011D
:10152000EA0DF11D8081803311F4397E09C032FF4C
:1015300006C0B394B39404C0832F867809F0B394A3
:1015400033FD13C030FF06C05A2CB31418F4530CEB
:101550005B18B32CB31468F4B70180E290E03C87C9
:101560000E941A0BB3943C85F5CFB31410F43B18CA
:1015700001C0312C34FF12C0B70180E390E03C87FA
:101580000E941A0B3C8532FF17C031FD03C088E76B
:1015900090E002C088E590E0B7010CC0832F867808
:1015A00059F031FF02C08BE201C080E237FD8DE2CD
:1015B000B70190E00E941A0BA51438F4B70180E33C
:1015C00090E00E941A0B5A94F7CFAA94F401EA0D06
:1015D000F11D8081B70190E00E941A0BA110F5CF98
:1015E000332009F451CEB70180E290E00E941A0B3B
:1015F0003A94F6CFF7018681978102C08FEF9FEF73
:101600002C96E2E10C94CC0BFC01059061507040EB
:101610000110D8F7809590958E0F9F1F0895FC01BB
:101620006150704001900110D8F7809590958E0F11
:101630009F1F08950F931F93CF93DF93FB01238187
:1016400021FD03C08FEF9FEF28C022FF16C0468107
:101650005781248135814217530744F4A081B18119
:101660009D012F5F3F4F318320838C9326813781EB
:101670002F5F3F4F3783268310C0EB01092F182FB0
:101680000084F185E02D0995892BE1F68E819F81FB
:1016900001969F838E83812F902FDF91CF911F9191
:1016A0000F910895FA01AA27283051F1203181F1D4
:1016B000E8946F936E7F6E5F7F4F8F4F9F4FAF4F5A
:1016C000B1E03ED0B4E03CD0670F781F891F9A1F6D
:1016D000A11D680F791F8A1F911DA11D6A0F711D21
:1016E000811D911DA11D20D009F468943F912AE02D
:1016F000269F11243019305D3193DEF6CF01089515
:10170000462F4770405D4193B3E00FD0C9F7F6CF45
:10171000462F4F70405D4A3318F0495D31FD40520D
:10172000419302D0A9F7EACFB4E0A69597958795A3
:1017300077956795BA95C9F7009761057105089582
:101740009B01AC010A2E069457954795379527952E
:10175000BA95C9F7620F731F841F951FA01D0895C6
:101760002F923F924F925F926F927F928F929F92B1
:10177000AF92BF92CF92DF92EF92FF920F931F939F
:10178000CF93DF93CDB7DEB7CA1BDB0B0FB6F89450
:10179000DEBF0FBECDBF09942A88398848885F8490
:1017A0006E847D848C849B84AA84B984C884DF8001
:1017B000EE80FD800C811B81AA81B981CE0FD11DE5
:1017C0000FB6F894DEBF0FBECDBFED010895F894BB
:0217D000FFCF49
:1017D200010025642C25642C25642C25640A00252F
:0417E200642C000073
:00000001FF
