:100000000C9435000C945D000C945D000C945D0024
:100010000C945D000C945D000C945D000C945D00EC
:100020000C945D000C945D000C945D000C944603F0
:100030000C9450030C940B040C945D000C945D0024
:100040000C945D000C945D000C945D000C945D00BC
:100050000C945D000C945D000C945D000C945D00AC
:100060000C945D000C945D00B70411241FBECFEF0B
:10007000D8E0DEBFCDBF11E0A0E0B1E0E0EEFCE0F3
:1000800002C005900D92A230B107D9F721E0A2E09D
:10009000B1E001C01D92A031B207E1F710E0C5E365
:1000A000D0E004C02197FE010E94CA04C433D107E6
:1000B000C9F70E9467040C946E060C94000010921D
:1000C000B90088E48093B800089594EA9093BC0046
:1000D0009091BC0097FFFCCF9091B900987F983029
:1000E00021F0903111F081E008958093BB0084E805
:1000F0008093BC008091BC0087FFFCCF8091B90049
:10010000887F883111F0803471F780E0089524EA07
:1001100034E844E92093BC009091BC0097FFFCCFE9
:100120009091B900987F983011F0903199F78093B1
:10013000BB003093BC009091BC0097FFFCCF909126
:10014000B900987F903211F0983539F44093BC0093
:100150009091BC0094FDFCCFDDCF08950C94650018
:1001600084E98093BC008091BC0084FDFCCF08959D
:100170008093BB0084E88093BC008091BC0087FF23
:10018000FCCF9091B900987F81E0983209F480E02B
:10019000089584EC8093BC008091BC0087FFFCCF65
:1001A0008091BB00089584E88093BC008091BC00DE
:1001B00087FFFCCF8091BB0008951092C50089E1B4
:1001C0008093C400E1ECF0E0808188618083E2EC00
:1001D000F0E080818660808308958091C00087FF71
:1001E000FCCF8091C60008958091C00085FFFCCFB0
:1001F0006093C60008950F931F93CF93DF938C01F4
:10020000EB016991662321F0C8010E94F400F9CF47
:10021000DF91CF911F910F910895CF92DF92EF92CE
:10022000FF920F931F93CF93DF936C018B01EB0130
:100230007E01E01AF10AC6010E94ED0089938A301E
:1002400019F098819111F4CFC701DF91CF911F91DF
:100250000F91FF90EF90DF90CF90089563E50C949D
:10026000B702CF93DF931F92CDB7DEB7FC01808139
:10027000898348E06DE2CE0101960E94D1020F9081
:10028000DF91CF910895EF92FF920F931F93CF9339
:10029000DF931F92CDB7DEB78B0166E1CE010196E9
:1002A0000E94B702CE0101960E94BF0266EACE010B
:1002B00001960E94C70262E3CE0101960E94C70226
:1002C000CE0101960E94BF0267EACE0101960E940C
:1002D000C70261E0CE0101960E943803B801CE0149
:1002E00001960E94F802E12CF12CB8016E0D7F1DE1
:1002F000CE0101960E94F8028FEFE81AF80A85E015
:10030000E816F10491F760E0CE0101960E943803EF
:10031000B8016B5F7F4FCE0101960E94F8020F90EB
:10032000DF91CF911F910F91FF90EF900895CF92A1
:10033000DF92EF92FF920F931F93CF93DF93CDB78E
:10034000DEB728970FB6F894DEBF0FBECDBF8C0185
:100350006B01CE0107960E94DD00BE016F5F7F4FEB
:10036000C8010E944301CE0101967C0186019CE0F8
:10037000C90ED11CF701619171917F01072E000C0C
:10038000880B990B0E94750527E73EEB4FE15DE373
:100390000E940106F80161937193819391938F01FB
:1003A000EC15FD0539F728960FB6F894DEBF0FBEA1
:1003B000CDBFDF91CF911F910F91FF90EF90DF9014
:1003C000CF900895CF93DF9300D000D000D0CDB769
:1003D000DEB7BE016F5F7F4F0E94430126960FB6C6
:1003E000F894DEBF0FBECDBFDF91CF9108951F936C
:1003F000CF93DF9300D0CDB7DEB7162F66E1CE01E5
:1004000001964A830E94B702CE0101960E94BF0264
:1004100066EACE0101960E94C702612FCE010196C5
:100420000E94C7024A81642FCE0101960E94C70232
:10043000CE0101960E9442030F900F90DF91CF9161
:100440001F910895FF920F931F93CF93DF931F92F5
:10045000CDB7DEB7F62E8A0166E1CE0101960E9485
:10046000B702CE0101960E94BF0266EACE01019654
:100470000E94C7026F2DCE0101960E94C702CE01D5
:1004800001960E94BF0267EACE0101960E94C70250
:10049000B801CE0101960E94F802CE0101960E9499
:1004A00042030F90DF91CF911F910F91FF9008951C
:1004B000DF92EF92FF920F931F93CF93DF9300D0C1
:1004C000CDB7DEB7D62E7A01CE0101960E94DD00AF
:1004D00086EA0E94650009EB10E0F8019081692F1F
:1004E000687FCE0101960E94F4008FE39FE101979F
:1004F000F1F700C000008D2D0E94B800F801608166
:10050000687FCE0101960E94F4008FE39FE101977E
:10051000F1F700C0000087EA0E94AE000E94D300FD
:10052000D82EF8016081687FCE0101960E94F40008
:100530008FE39FE10197F1F700C000006D2DCE0120
:1005400001960E94F400EFE3FFE13197F1F700C05C
:100550000000F701D0820E94B0000F900F90DF9151
:10056000CF911F910F91FF90EF90DF900895FC01C4
:10057000608382E18093B8001092B900089584EA04
:100580008093BC008091BC0087FFFCCF08956093EE
:10059000BB0084E88093BC008091BC0087FFFCCF47
:1005A0000895EF92FF921F93CF93DF931F92CDB7E1
:1005B000DEB77C01162F49830E94BF02F7018081BC
:1005C000682F660FC7010E94C702612FC7010E94F2
:1005D000C7024981642FC7010E94C70284E9809342
:1005E000BC000F90DF91CF911F91FF90EF90089585
:1005F0008091BB00FB0180838091BC008468809364
:10060000BC008091BC0087FFFCCF0895FF920F9340
:100610001F93CF93DF931F92CDB7DEB78C01F62ED9
:100620000E94BF02F8018081682F660FC8010E94F6
:10063000C7026F2DC8010E94C702C8010E94BF02F5
:10064000F8016081660F6F5FC8010E94C702BE019A
:100650006F5F7F4FC8010E94F80284E98093BC005D
:1006600089810F90DF91CF911F910F91FF90089595
:10067000ECEBF0E0908180E46802B0011124692B7A
:100680006083089584E98093BC0008951F920F92BF
:100690000FB60F9211240F900FBE0F901F90189558
:1006A0001F920F920FB60F921124CF92DF92EF920A
:1006B000FF922F933F934F935F936F937F938F930B
:1006C0009F93AF93BF93CF93DF93EF93FF93C0912B
:1006D0000E01D0910F01C130D105D1F410920F015C
:1006E00010920E01109203011092020180E9809392
:1006F0008B008FE380938A0088B100900C0102C0C8
:10070000CC0FDD1F0A94E2F7C095C823C8B96CC0AE
:100710006091020170910301072E000C880B990B68
:100720000E9475056B017C01CC0FDD1FC050DF4FAF
:1007300088819981BC0180E090E00E94730520E0EF
:1007400030E04AEF5CE30E94010620E030E04AEF2F
:1007500054E40E94D1049B01AC01C701B6010E9480
:10076000D1040E943D0570930301609302018091C2
:1007700001018093C60080910E0190910F01892B99
:1007800021F41092850010928400809103018093DF
:100790008B008091020180938A0080910E019091DC
:1007A0000F0128B1892B61F081E090E000900C01ED
:1007B00002C0880F991F0A94E2F7809582230AC02D
:1007C00081E090E000900C0102C0880F991F0A940C
:1007D000E2F7822B88B980910E0190910F0101966A
:1007E00090930F0180930E01FF91EF91DF91CF91D4
:1007F000BF91AF919F918F917F916F915F914F9139
:100800003F912F91FF90EF90DF90CF900F900FBE10
:100810000F901F9018951F920F920FB60F921124F0
:100820000F900FBE0F901F90189520E920938B001A
:100830002FE320938A001092800022E02093810011
:1008400027E020936F0020E031E0FC013383228316
:100850002CE031E0318320837894089527B1DC01C6
:10086000ED91FC9181E090E0008002C0880F991F1B
:100870000A94E2F7822B87B90895CF93DF93DC01C6
:100880001296ED91FC9113972FEF3FEF3183208368
:10089000E6ECF0E02083BFEFCDE3D9E4B150C040F7
:1008A000D040E1F700C00000EC01AA81BB811D929D
:1008B0001C921082DFEF2DE339E4D150204030400C
:1008C000E1F700C00000DF91CF9108950895CF9324
:1008D000DF9300D000D000D0CDB7DEB7CE010596B3
:1008E0000E94DD00CE0101960E941504CE01019602
:1008F0000E942E04CE0101960E943D042FEF6DE36D
:1009000079E4215060407040E1F700C0000021E030
:1009100080E090E034E04CE251E03BB9609184002B
:10092000609185006093C600EB81FC819183808398
:100930002403B001259F700D1124860F971F2130CD
:1009400021F48130E0E69E0734F497FF05C021E0F2
:1009500082E090E001C02FEF1BB86FEF70E7E2E09C
:1009600061507040E040E1F700C00000D6CF88B190
:10097000E4E0F1E090E09183808388B190E093839C
:10098000828388B190E09583848388B190E09783D7
:1009900086830895EE0FFF1F0590F491E02D0994D2
:1009A0005058BB27AA270E94E8040C94C7050E9450
:1009B000B90538F00E94C00520F039F49F3F19F4C2
:1009C00026F40C94B6050EF4E095E7FB0C94B00504
:1009D000E92F0E94D80558F3BA17620773078407F6
:1009E000950720F079F4A6F50C94FA050EF4E0953D
:1009F0000B2EBA2FA02D0B01B90190010C01CA01D9
:100A0000A0011124FF27591B99F0593F50F4503E83
:100A100068F11A16F040A22F232F342F4427585F75
:100A2000F3CF469537952795A795F0405395C9F78D
:100A30007EF41F16BA0B620B730B840BBAF0915045
:100A4000A1F0FF0FBB1F661F771F881FC2F70EC0E4
:100A5000BA0F621F731F841F48F4879577956795B7
:100A6000B795F7959E3F08F0B0CF9395880F08F0A3
:100A70009927EE0F9795879508950E9444056894ED
:100A8000B1110C94FB0508950E94E00588F09F5772
:100A900098F0B92F9927B751B0F0E1F0660F771FA2
:100AA000881F991F1AF0BA95C9F714C0B13091F098
:100AB0000E94FA05B1E008950C94FA05672F782F8B
:100AC0008827B85F39F0B93FCCF38695779567955D
:100AD000B395D9F73EF490958095709561957F4FC9
:100AE0008F4F9F4F0895E89409C097FB3EF490956F
:100AF0008095709561957F4F8F4F9F4F9923A9F0F7
:100B0000F92F96E9BB279395F69587957795679585
:100B1000B795F111F8CFFAF4BB0F11F460FF1BC0C9
:100B20006F5F7F4F8F4F9F4F16C0882311F096E95C
:100B300011C0772321F09EE8872F762F05C066230A
:100B400071F096E8862F70E060E02AF09A95660FC3
:100B5000771F881FDAF7880F9695879597F908957C
:100B600097F99F6780E870E060E008959FEF80EC60
:100B7000089500240A941616170618060906089503
:100B800000240A9412161306140605060895092E69
:100B90000394000C11F4882352F0BB0F40F4BF2BD8
:100BA00011F460FF04C06F5F7F4F8F4F9F4F089518
:100BB00057FD9058440F551F59F05F3F71F047950E
:100BC000880F97FB991F61F09F3F79F087950895F3
:100BD000121613061406551FF2CF4695F1DF08C012
:100BE000161617061806991FF1CF8695710561052F
:100BF00008940895E894BB2766277727CB0197F9D7
:100C000008950E9414060C94C7050E94B90538F097
:100C10000E94C00520F0952311F00C94B0050C94AF
:100C2000B60511240C94FB050E94D80570F3959F1E
:100C3000C1F3950F50E0551F629FF001729FBB27D3
:100C4000F00DB11D639FAA27F00DB11DAA1F649F6F
:100C50006627B00DA11D661F829F2227B00DA11D22
:100C6000621F739FB00DA11D621F839FA00D611DA8
:100C7000221F749F3327A00D611D231F849F600DC9
:100C8000211D822F762F6A2F11249F5750409AF0F2
:100C9000F1F088234AF0EE0FFF1FBB1F661F771F7E
:100CA000881F91505040A9F79E3F510580F00C9449
:100CB000B0050C94FB055F3FE4F3983ED4F38695B2
:100CC00077956795B795F795E7959F5FC1F7FE2BE9
:100CD000880F911D9695879597F90895F894FFCF01
:020CE000010011
:00000001FF
